:020000040800F2
:100000007808002005010008E71B0008131A000803
:10001000E51B00086D0700084D22000800000000E5
:10002000000000000000000000000000B91F0008F0
:100030006F07000800000000DD1E0008BB1F00085D
:100040001F0100081F0100081F0100081F01000810
:100050001F0100081F010008710700081F010008A8
:100060001F0100081F0100081F0100081F010008F0
:100070001F0100081F0100081F0100081F010008E0
:100080001F0100081F0100081F0100081F010008D0
:100090001F0100081F0100081F0100088307000856
:1000A0001F0100081F0100081F0100081F010008B0
:1000B0001F0100084D2000081F0100081F01000853
:1000C0001F0100081F0100081F0100081F01000890
:1000D0001F0100081F0100081F0100081F01000880
:1000E0001F0100081F0100081F010008DFF810D0E1
:1000F00000F02AFB0048004751360008AFF30080AB
:10010000780800200648804706480047FEE7FEE7DB
:10011000FEE7FEE7FEE7FEE7FEE7FEE7FEE7FEE7B7
:100120001F200008ED000008202A04DB203A21FAF5
:1001300002F00021704721FA02F3D040C2F1200200
:10014000914008431946704740EA01039B0703D0DA
:1001500009E008C9121F08C0042AFAD203E011F806
:10016000013B00F8013B521EF9D27047D2B201E0C8
:1001700000F8012B491EFBD270470022F6E710B5AC
:1001800013460A4604461946FFF7F0FF204610BD05
:100190002DE9FE4F804681EA0300C00F0C46009017
:1001A00021F0004123F00045B8EB0200A94105D23F
:1001B0004046214690461C460B46024623F000402E
:1001C000104347D0270DC7F30A00C3F30A5102902A
:1001D000401A019040286BDAC3F3130040F4801BEF
:1001E0000098924620B10023D2EB030A63EB0B0B7D
:1001F00001985946C0F14002504600F069F90646A0
:100200000D4650465946019A00F071F910EB08006E
:100210006141002487EA115284EAE7731A4340D00F
:10022000009A62B3019A012A4FEA075215DC001BBB
:1002300061EB02014FF0004202EA0752CDE90042B1
:10024000001C41F5801132462B4600F0A8F903B09E
:10025000BDE8F08F40462146F9E7001B61EB020143
:10026000001C41F5801300185B412018A2F500170F
:1002700047EB030140EAD570B6196D4111E06D08F6
:100280004FEA360645EAC0754FEA0752001B61EB9C
:100290000201001C41F5801149084FEA30000019A5
:1002A000514132462B4603B0BDE8F04F00F068B92B
:1002B0000098012240000023D0EB020263EBE073C0
:1002C000009821464FEAE074B8EB000061EB0401AE
:1002D000E9E783F000435BE781F0004158E72DE94F
:1002E000FE4F81EA030404F0004421F00041009431
:1002F0004FF0000B23F0004350EA01045ED052EAB5
:1003000003045BD0C3F30A54C1F30A552C44A4F28E
:10031000F3340194A0FB0254C1F3130141F48011A2
:10032000C3F3130343F4801301FB024400FB034EA9
:10033000840A970A44EA815447EA8357A4FB076872
:1003400002958D0A05FB07854FEA932C04FB0C549C
:100350002705029D4FEA065847EA1637B5EB080510
:100360006EEB070C870E920E47EA811742EA831262
:10037000A7FB0201B6EB0B0164EB00042B0D43EA73
:100380000C335E1844EB1C50DA465146E7FB020181
:10039000C5F313044FEA0B3343EA14534FEA043214
:1003A000019C43EA0603A4F10C040294009CCDE9ED
:1003B00000B400F0F4F803B0BDE8F08F002001466F
:1003C000F9E70EB540F2334202920022CDE9002255
:1003D000134600F0E4F803B000BDC1F30A52C1F3C4
:1003E000130140F2FF3341F480119A4202DA0020F7
:1003F0000146704740F233439A42A2F2334202DC94
:100400005242FFF791BE00F063B801F0004330B4F0
:1004100021F0004150EA010206D00A0DA2F56072F7
:10042000C1F31301002A02DC30BC00207047440FE6
:1004300044EAC104C100E01830BC00EBC25000F037
:1004400068B830B50B46014600202022012409E09F
:1004500021FA02F59D4205D303FA02F5491B04FA7D
:1004600002F52844151EA2F10102F1DC30BD2DE990
:10047000F05F0546002092469B4688460646814628
:1004800040241BE02846414647462246FFF74CFEE3
:1004900053465A46C01A914110D311461846224677
:1004A00000F016F82D1A67EB01084F46224601208E
:1004B000002100F00DF817EB00094E41201EA4F1B9
:1004C0000104DFDC484631462A464346BDE8F09F3A
:1004D000202A04DB203A00FA02F100207047914004
:1004E000C2F1200320FA03F3194390407047202AF9
:1004F00006DBCB17203A41FA02F043EAE07306E04C
:1005000041FA02F3D040C2F120029140084319465B
:1005100070470029A8BF7047401C490008BF20F061
:100520000100704710B4B0FA80FC00FA0CF050EAF9
:10053000010404BF10BC704749B1CCF1200421FA7A
:1005400004F411FA0CF118BF012121430843A3EB75
:100550000C01CB1D4FEA00614FEA102042BF002082
:1005600010BC704700EBC35010440029A4BF10BC5E
:100570007047401C490008BF20F0010010BC7047C4
:1005800010B5141E73F1000408DA401C41F100019B
:1005900092185B411A4301D120F0010010BD2DE9F2
:1005A000F04D92469B4611B1B1FA81F202E0B0FAE9
:1005B00080F220329046FFF78BFF04460F4640EA58
:1005C0000A0041EA0B0153465A46084313D011462C
:1005D00053EA010019D0C8F140025046FFF7A4FDCC
:1005E00005460E46504659464246FFF771FF0843FE
:1005F00005D0012004E020463946BDE8F08D0020FA
:10060000054346EAE0762C4337430A986305E40A3B
:10061000A0EB08000022FD0A44EA47540A3002D544
:1006200000200146E9E7010510196941DDE90845A7
:1006300000196941BDE8F04DA2E72DE9F04D81EACE
:10064000030404F0004B21F0004514464FF0000A6B
:1006500023F0004150EA050220D054EA01021DD0E7
:10066000C5F30A570246C5F31303C1F31300C1F3E0
:100670000A5640F4801543F48013A7EB0608101BBC
:10068000D64608F2FD3873EB050002D308F10108E5
:1006900001E092185B41B8F1000F03DA0020014637
:1006A000BDE8F08D00204FF48011064684460EE030
:1006B000171B73EB050705D3121B63EB05030643FA
:1006C0004CEA010C49084FEA300092185B4150EAAD
:1006D0000107EDD152EA030012D082EA040083EA56
:1006E0000501084305D0101BAB4106D201220023AF
:1006F00006E000224FF0004302E06FF001025310C9
:100700001AEB06004CEB085110EB0A0041EB0B0111
:10071000BDE8F04DFFF734BF30B5041E71F10004A1
:1007200004DB4FF00044404264EB0101141E73F1FE
:10073000000405DB1C464FF00043524263EB040308
:10074000994208BF904230BD064C074D06E0E06874
:1007500040F0010394E8070098471034AC42F6D308
:10076000FFF7C8FC2841000848410008FEE7704731
:10077000012000F02FB8172001F08EBD172001F0E6
:100780008BBD202000F026B84109890001F1E0214D
:10079000D1F8001100F01F0201209040014201D069
:1007A000012070470020704772B6FEE770B504461E
:1007B00000F012F90546601C02D004480078044499
:1007C00000F00AF9401BA042FAD370BD04000020DB
:1007D00070470000044910B50A68024202D0086060
:1007E000FFF7F6FF10BD0000140401402DE9F84F9B
:1007F000DFF8B891002409F1040A0AF1040B23463A
:100800000F270BF1040EC9E00125A5402A40AA429A
:100810007DD1674ED1F804C0ACEB0608B44532D0A8
:1008200014DCBCF1030F3AD009DCBCF1000F2AD074
:10083000BCF1010F1CD0BCF1020F31D11DE0BCF1A5
:10084000110F17D0BCF1120F2AD119E0B8F5881F8B
:1008500019D006DCB8F5803F15D0B8F5801F1FD140
:1008600011E0B8F5001F0ED0B8F5041F18D10AE04A
:10087000CB6815E0CB681B1D12E0CB6808330FE096
:10088000CB680C330CE08B682BB1012B4FF00803C5
:1008900003D0456104E0042302E0056100E0002389
:1008A000FF2A01D8064601E000F104064FEA84055C
:1008B00001D9A5F12005D6F8008007FA05FC28EA41
:1008C0000C0803FA05F548EA0508C6F800804D68EB
:1008D000ED0062D5374DAE6946F00106AE61AD69F7
:1008E00024F0030605F001050095334D06EB050CD9
:1008F000DCF80850A607360F07FA06F825EA0805BF
:10090000DFF8B880404503D14FF0000817E044E01D
:10091000DFF8AC80404502D14FF001080FE0DFF86E
:10092000A480404502D14FF0020808E0DFF898802B
:10093000404502D14FF0030801E04FF0040808FAE7
:1009400006F848EA0508CCF808804D68D9F8006038
:10095000ED034D4601D5164300E096432E604D68E9
:10096000DAF80060AD03554601D5164300E0964322
:100970002E604D68DBF80060ED025D4601D5164340
:1009800000E096432E604D68DEF80060AD027546CB
:1009900001D5164300E096432E60641C0D682A467C
:1009A000E5407FF431AFBDE8F88F0000000401405E
:1009B000000011100010024000000140000801403A
:1009C000000C014000100140001401400AB1016117
:1009D00070470904FBE70000014880687047000089
:1009E0000400002002488168027811448160704749
:1009F00004000020074810B5016841F010010160B3
:100A0000032000F085F80F2000F006F800F024F82D
:100A1000002010BD0020024070B50D4D04464FF47B
:100A20007A712878B1FBF0F00A490968B1FBF0F05F
:100A300000F038FD48B9102C07D200222146501E84
:100A400000F046F800206C6070BD012070BD000011
:100A500004000020100000200C4808B5816941F016
:100A600001018161816901F001010091C16941F0D9
:100A70008051C161C06900F0805000900448416815
:100A800021F0E06141F00071416008BD00100240BA
:100A90000000014000280DDB00F01F020121914001
:100AA0004009800000F1E020C0F88011BFF34F8FB3
:100AB000BFF36F8F7047002809DB00F01F02012190
:100AC00091404009800000F1E020C0F8001170471B
:100AD000F0B40E4B1B680C46C3F30223C3F10705A9
:100AE000042D00D90425191D072901D2002300E097
:100AF000DB1E012606FA05F1491E214099409E4061
:100B0000761E16403143F0BC01F0D7BB0CED00E07F
:100B1000064900F0070208684FF6FF03184040EA54
:100B20000220034A10430860704700000CED00E00B
:100B30000000FA052DE9F0470F46050061D0434E4D
:100B4000306800F00700B84209D2306820F0070092
:100B500038433060306800F00700B84251D128684F
:100B60003B4C810712D5400703D5606840F4E06034
:100B700060602878000703D5606840F460506060CA
:100B80006068A96820F0F000084360602878C0071A
:100B900028D06868012810D02168022810D0890761
:100BA00000292EDA616821F0030101436160FFF73B
:100BB00013FF804641F288390DE021688903EFE791
:100BC0008901EDE7FFF708FFA0EB0801494502D9CD
:100BD0000320BDE8F0876068696800F00C00B0EBA6
:100BE000810FEFD1306800F00700B8420BD93068B0
:100BF00020F0070038433060306800F00700B8424A
:100C000001D00120E5E72878400705D56068E9684C
:100C100020F4E060084360602878000706D560682B
:100C2000296920F4605040EAC100606000F038F8A3
:100C30006168084AC1F30311515CC8400649086065
:100C400006480068FFF7E8FE0020C2E700200240E7
:100C500000100240383E000810000020080000206C
:100C60000448054900684968044AC1F30221515CFF
:100C7000C84070471000002000100240483E0008A5
:100C80000448054900684968044AC1F3C221515C1F
:100C9000C84070471000002000100240483E000885
:100CA00013A185B00FC98DE80F0015A0154A006883
:100CB0000490516801F00C00042804D0082804D0E6
:100CC000114805B070471148FBE7C1F38343C903DE
:100CD0001DF8030009D5516804AAC1F34041515CD5
:100CE0000A4A5043B0FBF1F0EBE709494843E8E713
:100CF00002030405060708090A0B0C0D0E0F10105D
:100D0000010200000010024000127A000024F400EA
:100D100000093D002DE9F84F040070D02078C04D47
:100D2000C00749D06868C0F38100012807D068680F
:100D3000C0F38100022809D16868C00306D528687D
:100D4000800339D560680028E7D035E06068B0F5E9
:100D5000803F0BD010B1B0F5A02F11D0286820F43F
:100D600080302860286820F4802002E0286840F461
:100D700080302860606890B1FFF72EFE06460AE0DA
:100D8000286840F480202860F0E700BFFFF724FEC9
:100D9000801B642873D828688003F7D50CE0FFF720
:100DA0001BFE064605E000BFFFF716FE801B642809
:100DB000F0D828688003F7D420789A4E80074FF047
:100DC00001094FF0000839D5686810F00C0F07D002
:100DD0006868C0F38100022809D16868C00306D49E
:100DE0002868800714D52069012808D110E02069FF
:100DF000B0B1C6F80090FFF7EFFD074605E00AE145
:100E0000FFF7EAFDC01B0228C4D828688007F7D581
:100E10002868616920F0F80040EAC10028600DE010
:100E2000C6F80080FFF7D8FD074604E0FFF7D4FDC1
:100E3000C01B022823D828688007F7D42078000731
:100E40002CD57948A169D9B1C0F80090FFF7C4FD4D
:100E5000074604E0FFF7C0FDC01B02280FD8686AF0
:100E60008007F7D571484FF4FA510068B0FBF1F0F4
:100E7000009000BF0098411E0091FAD20EE080E081
:100E8000C0F80080FFF7A8FD074604E0FFF7A4FDC7
:100E9000C01B022875D8686A8007F7D420784007FD
:100EA00060D5E8690027C00008D4E86940F08050A8
:100EB000E861E869012700F0805000905C48016813
:100EC000C90513D40168834641F480710160FFF7BE
:100ED00083FD824606E000BFFFF77EFDA0EB0A001F
:100EE00064284ED8DBF80000C005F5D5E06801287D
:100EF0000AD008B1052813D0286A20F00100286222
:100F0000286A20F0040002E0286A40F0010028620C
:100F1000E06841F2883B98B1FFF75EFD82460BE046
:100F2000286A40F004002862EEE700BFFFF754FD96
:100F3000A0EB0A0159455AD8286A8007F6D50CE07B
:100F4000FFF74AFD824605E0FFF746FDA0EB0A01E8
:100F500059454CD8286A8007F6D41FB1E86920F0BB
:100F60008050E861E06988B36968C1F381010229B2
:100F700044D00228C6F8608004D0FFF72DFD044657
:100F800038E034E0FFF728FD074604E0FFF724FDD2
:100F9000C01B02282BD828688001F7D4206AB0F53E
:100FA000803F05D16868A16820F40030084368607C
:100FB000D4E908010843696821F4741108436860A2
:100FC000C6F86090FFF708FD044606E025E000BF84
:100FD000FFF702FD001B022809D828688001F7D519
:100FE0001BE000BFFFF7F8FC001B022802D903201A
:100FF000BDE8F88F28688001F4D40EE00128F7D00E
:101000006868226A00F48031914204D1616A00F478
:101010007010884201D00120EAE70020E8E70000D4
:1010200000100240000042428004424210000020B2
:101030000070004090F85100704770B5040009D06E
:10104000606A002540B125616561A56294F8510090
:1010500040B10CE0012070BD6068B0F5827FF4D033
:10106000E561F2E784F85050204600F03FF8022096
:1010700084F851002068016821F040010160A088D7
:10108000218900F4827001F404410843A18901F42C
:1010900000610843217C01F002010843217D01F039
:1010A00001010843218B01F400710843217F01F005
:1010B0003801084394F8201001F080010843218D85
:1010C00001F40051084321680860A069042101EA85
:1010D0001040216848602068C16921F40061C16145
:1010E0006565012084F85100002070BD30B585B0E1
:1010F00000240094019402940394006814498842E7
:1011000023D11448816941F480518161816901F4DE
:1011100080510491816941F00401816180690E4D23
:1011200000F004000490A020009002200190032011
:10113000039069462846FFF759FB4020CDE900049B
:10114000694628460294FFF751FB05B030BD000008
:101150000030014000100240000801402DE9F84F26
:10116000044690F8500000271D461646894601287F
:101170000DD04FF0010B84F850B0FFF72DFC8046E6
:1011800094F85100BA46012804D0022793E00220C7
:10119000BDE8F88FB9F1000F73D0002E71D0032095
:1011A00084F85100C4F854A0C4F83090A686E686AE
:1011B000C4F838A0A4F83CA0A4F83EA0C4F844A009
:1011C000C4F840A0A068B0F5004F09D120680168BC
:1011D00021F0400101602068016841F48041016014
:1011E00020680168490603D4016841F040010160AC
:1011F000E068B0F5006F606803D030B3012E24D0F2
:1012000041E008B1012E1CD1206B21680088C86024
:1012100006E020688168890709D5216B0988C160CB
:10122000206B801C2063E08E401EE08609E0FFF703
:10123000D3FBA0EB0800A84202D3681C01D031E028
:101240007DB3E08E0028E4D120E0206B2168007897
:10125000087306E020688168890709D5216B097841
:101260000173206B401C2063E08E401EE0860AE084
:10127000FFF7B2FBA0EB0800A84203D3681C02D022
:1012800010E017E06DB1E08E0028E3D14246294618
:10129000204600F024FE08B120206065A06818B147
:1012A00006E0FFE7032706E02068C1688068009039
:1012B000606D00B1012784F851B084F850A0384621
:1012C00066E72DE9F84F044690F8500000270A9E83
:1012D0001D4692468B464FF0010901280ED0012091
:1012E00084F85000FFF778FB804694F8510061685D
:1012F00001280CD0B1F5827F07D102E00220BDE8C1
:10130000F88FA16809B9042801D00227C2E0BBF117
:10131000000F27D0BAF1000F24D01DB394F851006C
:10132000042802D0052084F8510000206065C4F82C
:1013300038A0E587A587C4F830B0E586A586206487
:10134000606420680168490603D4016841F04001E7
:101350000160E068B0F5006F606805D0E8B3012D6A
:1013600046D07FE0012795E008B1012D39D1206BEF
:1013700021680088C860206B801C2063E08E401EBE
:10138000E0862EE02068816889070FD5E18E69B17B
:10139000B9F1010F0AD1216B0988C160206B801C53
:1013A0002063E08E401EE0864FF0000920688168CF
:1013B000C9070CD0E18F51B1C068A16B0880A06B48
:1013C000801CA063E08F401EE0874FF00109FFF70B
:1013D00003FBA0EB0800B04200E009E001D3701C61
:1013E00050D1E08E0028CDD1E08F0028CAD13FE057
:1013F000206B216800780873206B401C2063E08E0E
:10140000401EE0862EE02068816889070FD5E18EB6
:1014100069B1B9F1010F0AD1216B09780173206B11
:10142000401C2063E08E401EE0864FF000092068DB
:101430008168C9070CD0E18F51B1C068A16B0870F9
:10144000A06B401CA063E08F401EE0874FF00109B5
:10145000FFF7C2FAA0EB0800B04202D3701C01D023
:1014600010E07EB1E08E0028CDD1E08F0028CAD1F7
:1014700042463146204600F032FD28B101272020A7
:10148000606507E0032705E0A06818B92068C16817
:1014900080680090012084F85100002084F85000FA
:1014A00038462CE710B5401EB0F1807F01D30120F3
:1014B00010BD4FF0E02460610F21601700F0FDFEC9
:1014C0000020A06107202061002010BD70477047F8
:1014D00070B590F83C20012A26D0012480F83C40C9
:1014E000022280F83D2003685A689D6822F0700649
:1014F0000A6832435A600D4B02689A4208D0B2F132
:10150000804F05D00A4B9A4202D00A4B9A4204D12E
:10151000496825F080031943916080F83D4000211F
:1015200080F83C10084670BD022070BD002C0140C0
:10153000000400400008004010B5040003D094F8F7
:101540003D0010B107E0012010BD002084F83C00F0
:10155000204600F01FF8022084F83D00211D20687D
:1015600000F07AFD012084F8460084F83E0084F8FB
:101570003F0084F8400084F8410084F8420084F879
:10158000430084F8440084F8450084F83D000020BE
:1015900010BD000008B500680B49884212D10B4805
:1015A000C16941F00201C161C069002200F002007E
:1015B000009011461D20FFF78BFABDE808401D2062
:1015C000FFF779BA08BD0000000400400010024097
:1015D00090F83D10012901D001207047022180F8C8
:1015E0003D1000680B49884208D0B0F1804F05D00B
:1015F0000949884202D00949884204D1816801F032
:101600000701062903D0016841F0010101600020B3
:1016100070470000002C014000040040000800401A
:1016200001680A6A41F211131A4207D10A6A9B1033
:101630001A4203D10A6822F001020A60012180F8EF
:101640003D100020704770B5044690F83C0001281A
:1016500017D0012584F83C50022084F83D00206812
:10166000826822F0770222F47F4282600868502864
:1016700030D00DDC20284DD005DC98B310283BD1AC
:1016800048E0022070BD302844D0402834D139E0F1
:10169000602828D0702806D0B0F5805F2CD0B0F537
:1016A000005F29D10AE0CB68D1E90121206800F070
:1016B00009FD2068816841F0770109E0CB68D1E934
:1016C0000121206800F0FEFC2068816841F480411F
:1016D000816011E0CA684968206800F005FD50216A
:1016E000206807E016E0CA684968206800F00DFD30
:1016F0006021206800F0F0FC84F83D50002084F860
:101700003C0070BDCA684968206800F0EDFC4021CB
:101710002068EFE7226801461046EBE7704770B596
:101720000446006801694FF00005C943890715D4D4
:10173000C168C943890711D4E91E016101202077DE
:10174000206880698007204602D0FFF7E7FF04E0A9
:1017500000F098F8204600F096F825772068016997
:10176000C943490717D4C168C943490713D46FF067
:1017700004010161022020772068806910F4407F15
:10178000204602D0FFF7CAFF04E000F07BF82046B5
:1017900000F079F8257720680169C943090716D454
:1017A000C168C943090712D46FF008010161042020
:1017B00020772068C0698007204602D0FFF7AEFF7F
:1017C00004E000F05FF8204600F05DF8257720681F
:1017D0000169C943C90617D4C168C943C90613D4EE
:1017E0006FF010010161082020772068C06910F4B3
:1017F000407F204602D0FFF791FF04E000F042F85E
:10180000204600F040F8257720680169C943C907E0
:1018100008D1C168C943C90704D1891E01612046A6
:1018200000F032F820680169C943090609D4C1688B
:10183000C943090605D46FF0800101612046FFF716
:1018400045FE20680169C943490609D4C168C943F6
:10185000490605D46FF040010161204600F015F8FB
:1018600020680169C94389060BD4C168C943890648
:1018700007D46FF0200101612046BDE87040FFF7FA
:1018800026BE70BD704770477047704770B5040042
:1018900004D094F83D00002510B106E0012070BD91
:1018A00084F83C50204600F023F8242084F83D00C2
:1018B0002068C16821F40051C160204600F038FC66
:1018C0002068016921F4904101612068416921F09B
:1018D0002A0141612068C16841F40051C16025645A
:1018E000202084F83D0084F83E00002070BD0000F8
:1018F00030B585B0002400940194029403940068EC
:101900001449884224D11448C16941F48021C1613D
:10191000C16901F480210491816941F0080181616C
:1019200080690E4D00F0080004904FF48060009034
:10193000022001900320039069462846FEF756FFD7
:10194000E814CDE90004694628460294FEF74EFFEC
:1019500005B030BD0048004000100240000C0140BE
:101960002DE9F843044690F83D001F4616460D4603
:1019700020284CD1C5B1BEB194F83C00012846D016
:10198000012084F83C004FF00008C4F8408021207A
:1019900084F83D00FFF720F8A6848146E684A0681D
:1019A000B0F5805F03D004E00120BDE8F883206932
:1019B00028B12E465FF0000584F83C800EE000263A
:1019C000FAE78021204600F00FFCA0B9AEB116F86E
:1019D000010B21684860E08C401EE084E08C4B469F
:1019E0004FF0000200970028EBD14FF04001204655
:1019F00000F0FAFB30B10320D7E735F8020BC0F353
:101A00000800E6E7202084F83D000020CDE7022012
:101A1000CBE7FEE72DE9F04385B00025334800957C
:101A2000019502950395816941F0200181618169E9
:101A300001F020010491816941F004018161816913
:101A400001F004010491816941F00801816180691C
:101A5000274F00F008000490012210213846FEF7BD
:101A6000B5FFDFF89090012243F202014846FEF7ED
:101A7000ADFFDFF884800124CDE90048694638468F
:101A80000295FEF7B3FE102003268DE8710069462B
:101A90003846FEF7ABFE0227CDE90074CDE90246D9
:101AA00069464846FEF7A2FE30038DE8710069469C
:101AB0004846FEF79BFE2020CDE9000869460297C4
:101AC0004846FEF793FE002203210620FFF700F8A8
:101AD0000620FEF7F0FF002204211720FEF7F8FF92
:101AE0001720FEF7E8FF05B0BDE8F08300100240C4
:101AF00000080140000C014000001110104810B512
:101B00000E4901604FF48271416000218160C16023
:101B10004FF400720161C0E905122022C0E90721DB
:101B2000416281620A21C162FFF787FA002803D06F
:101B3000BDE81040FEF738BE10BD00000030014087
:101B40006800002010B586B0002417480094019466
:101B50000294039404941349059401604721C0E959
:101B600001144FF6FF71C0E903148461FFF7E4FC30
:101B700008B1FEF719FE4FF48050009069460A48FC
:101B8000FFF761FD08B1FEF70FFE049404A90648B3
:101B90000594FFF79DFC002801D0FEF705FE06B076
:101BA00010BD000000040040C00000200C4810B52B
:101BB0000A4901604FF4E1314160002181600C224B
:101BC000C160C0E904128161C161FFF75FFE0028B6
:101BD00003D0BDE81040FEF7E7BD10BD004800404F
:101BE00008010020FEE7FEE770B5002404F1B00014
:101BF000C0B2002100F06DF90021022000F069F967
:101C00000021102000F065F900250121002000F0DE
:101C100060F96D1CEDB2802DF7D3641CE4B2082C82
:101C2000E4D370BD10B5044600F02AF8782000F027
:101C300073F800F05FF8002000F06EF800F05AF83A
:101C4000204600F069F800F055F8BDE8104000F0BB
:101C500033B810B5044600F013F8782000F05CF8B3
:101C600000F048F8402000F057F800F043F8204614
:101C700000F052F800F03EF8BDE8104000F01CB84B
:101C800070B501220B4D540321462846FEF79EFEF7
:101C90000122160331462846FEF798FE002221460F
:101CA0002846FEF793FE31462846BDE870400022E4
:101CB000FEF78CBE000C014070B50D4D4FF4805402
:101CC000002221462846FEF781FE660000223146AA
:101CD0002846FEF77BFE012221462846FEF776FEC7
:101CE00031462846BDE870400122FEF76FBE000075
:101CF000000C014070B50122064D14032146284610
:101D0000FEF764FE21462846BDE870400022FEF73B
:101D10005DBE0000000C01402DE9F041134F054667
:101D20004FF48056002231463846FEF74FFE00241D
:101D30004FF40058280601D5012200E00022414658
:101D40003846FEF743FE6806050E01223146384646
:101D5000FEF73CFE002231463846FEF737FE641C93
:101D6000E4B2082CE6D3BDE8F0810000000C01408D
:101D700010B50021AE2000F0ACF80021402000F0AA
:101D8000A8F80021B02000F0A4F80021C82000F03D
:101D9000A0F80021812000F09CF80021FF2000F035
:101DA00098F80021A12000F094F80021A62000F06E
:101DB00090F80021A82000F08CF800211F2000F0EE
:101DC00088F80021D32000F084F80021084600F0B4
:101DD00080F80021D52000F07CF80021F02000F0F0
:101DE00078F80021D92000F074F80021222000F0BA
:101DF00070F80021DA2000F06CF80021022000F0D9
:101E000068F80021DB2000F064F80021492000F090
:101E100060F800218D2000F05CF80021142000F013
:101E200058F80021AF2000F054F8FFF7DDFE002144
:101E3000BDE810400846AFF3008010B50446B0314D
:101E4000C8B2002100F045F8102040EA141000212B
:101E500000F03FF804F00F00BDE8104040F0010032
:101E6000002100F036B8000070B5203A0024D5B249
:101E70007F2802D9491C0020C9B2FFF7DEFF0749BD
:101E800005EB450001EB40050121285D00F021F83C
:101E9000641CE4B2062CF7D370BD0000503E00086D
:101EA0002DE9F04117460E46044600250CE0314668
:101EB0002046FFF7D9FFA41DE4B2782C02D90024F4
:101EC000761CF6B26D1CEDB27A5D002AEFD1BDE84A
:101ED000F08109B1FFF7BDBEFFF7A4BE704738B56A
:101EE0000B46009204460022802100F009F80028E9
:101EF00004D0606D40F020006065032038BD000014
:101F00002DE9F8431E46914688460446089DFEF793
:101F100063FD401B351AFEF75FFD07462548006844
:101F2000C0F3CB30684338E0701C37D0FEF754FD67
:101F3000C01BA84203D215B1009860B32CE0206802
:101F4000416821F0E00141606068B0F5827F0BD10B
:101F5000A068B0F5004F02D0B0F5806F04D12068C2
:101F6000016821F040010160A06AB0F5005F09D16D
:101F70002068016821F4005101602068016841F483
:101F800000510160012084F85100002084F85000C5
:101F90000320BDE8F8830025401E0090206881687A
:101FA00038EA010004D000214945BDD10020F0E706
:101FB0000121F9E7100000207047FEF713BD10B5AE
:101FC00090B028216846FEF7D8F814210AA8FEF739
:101FD000D4F801210804CDE9001042000292022445
:101FE0000491CDE907404FF4E01009906846FEF7F0
:101FF00091FE08B172B6FEE70F20CDE90A04002079
:102000004FF48061CDE90C010E9002210AA8FEF781
:1020100091FD002801D072B6FEE710B010BD7047E8
:1020200070B54FF6F0752C1A0748FFF7D1FA06483D
:1020300001684C62006800E0446AAC42FCD3BDE831
:1020400070400148FFF7ECBAC00000200148FFF7DC
:1020500066BB0000C0000020F0B50268164B174CAC
:10206000174D4FF08047984205D0B84203D0A042A8
:1020700001D0A84203D122F070064A683243984248
:1020800005D0B84203D0A04201D0A84203D122F427
:102090004074CA6822434C6922F0800222430260E5
:1020A0008A68C2620A688262984201D10969016342
:1020B00001214161F0BD0000002C014000040040FE
:1020C0000008004010B5846842EA032224F47F44EB
:1020D0000A432243826010BD826822F070020A43E4
:1020E00042F007018160704710B5036A046A24F06A
:1020F00001040462846924F0F00444EA021423F029
:102100000A020A438461026210BD10B5036A23F01B
:10211000100303628369046A23F4704343EA0232C2
:1021200024F0A00343EA01118261016210BD0000A6
:1021300070B5044600680169E26821F4405111431A
:1021400001612169A0680843616908432168CA6880
:1021500041F20C639A430243CA6020684169A26954
:1021600021F44071114341611E492068884202D127
:10217000FEF786FD01E0FEF773FD00EBC00101EB09
:102180000012606864218000B2FBF0F3B3FBF1F34E
:102190006FF018067343B2FBF0F5B2FBF0F605EBF7
:1021A0008305322303EB0515B5FBF1F5B6FBF1F61C
:1021B00005F0F00505EB0615B2FBF0F6B2FBF0F00A
:1021C000B0FBF1F06FF01802504306EB800003EB18
:1021D0000010B0FBF1F0216800F00F002844886087
:1021E00070BD0000003801402DE9F04198461746C7
:1021F0000E460446069D1DE0681C1BD02DB1FEF75F
:10220000EBFBA0EB0800A84214D92068C16821F4B8
:10221000D071C1602068416921F001014161202035
:1022200084F83D0084F83E00002084F83C00032040
:10223000BDE8F0812068006836EA000004D0002084
:10224000B842D9D00020F3E70120F9E7FEE700000B
:102250000FB4054B10B503A9044A029800F0CAF95F
:1022600010BC5DF814FB0000C533000864000020BA
:102270000FB4084B10B504A902AA039800F0BAF9EC
:10228000044602A9002000F038FD204610BC5DF88D
:1022900014FB0000FB2C000800280DDB00F01F02DF
:1022A000012191404009800000F1E020C0F8801138
:1022B000BFF34F8FBFF36F8F70470907090E0028D8
:1022C00004DB00F1E02080F80014704700F00F00FC
:1022D00000F1E02080F8141D704702E008C8121FCA
:1022E00008C1002AFAD170477047002001E001C1FF
:1022F000121F002AFBD1704710B5002202212C20AA
:1023000001F019F80222BDE8104011462C2001F01E
:1023100012B810B504466D2240F606012E2001F0D9
:102320000AF841F6060114B140F2076201E041F2F9
:102330000762BDE810402E2000F0CCBF10B5002091
:1023400000F007F800220421BDE81040362000F01C
:10235000C1BF38B504466B4602220021362000F08A
:10236000B9FE0F2C2DD2DFE804F01008162C2C2C0F
:102370002C1E3A2C2C454A4F560000208DF80000A8
:102380009DF8010000F0FE0019E09DF8000000F04B
:10239000FC00401C04E09DF8000000F0FC00801CE4
:1023A0008DF800000DE09DF8000000F0B30040F053
:1023B00048008DF800009DF8010040F080008DF885
:1023C00001006B4601220021362000F0BCFF0122F3
:1023D000114636200DF1010300F0B5FF38BD9DF820
:1023E000000000F0B3008DF800009DF8010000F03F
:1023F0007F00E4E79DF8010040F00200DFE79DF870
:10240000010000F0FD00DAE79DF8000000F0CF00C9
:1024100040F02000C4E701208DF800000320CEE743
:1024200010B50E20FFF795FF4FF4004206212D2036
:1024300000F050FF012000F065FCBDE810400120D5
:10244000FFF787BF10B582B204212D2000F042FFB4
:10245000032206212D2000F06EFF002206212D20F0
:1024600000F069FF0A21BDE810402D2000F013BEE6
:102470002DE9FF5F82B00021DDE90430020DDDF8B7
:1024800040B0034318D044F61050A2F2FF3242434A
:102490001514119801281FD0A5EB0B00401C5FEA12
:1024A000000A4FF000064E4FDFF83891B046504614
:1024B00015D5CAF1000413E0119801244AA301289C
:1024C00001D16FEA0B010298119AC0E90031C0E90D
:1024D000024206B0BDE8F09FCBF10000DFE7044602
:1024E0000021404A491842EB0450CDE9001012E0A7
:1024F000E00707D032463B4640464946FDF7EFFE2F
:102500008046894632463B4610461946FDF7E7FEAF
:1025100006460F466410002CEAD1DDE90401DDE92E
:102520000023BAF1000F06DAFDF7D9FE42464B460A
:10253000FDF7D5FE05E0FEF780F842464B46FEF774
:102540007CF804460E460022284BFEF7E5F803D837
:102550004FF0FF30014607E00022254B2046314670
:10256000FDF716FEFDF739FF102409E0002C0ADB09
:102570000A220023FDF77BFF039B30321A55641EAD
:1025800050EA0102F2D1641C039AC4F1110314440D
:10259000119A012A03D0012208430DD10AE0084311
:1025A00004D000204FF0110B119072E7A3EB0B0544
:1025B0006D1E0DE05B4504DD4FF0000205F10105E5
:1025C00004E003DA4FF00002A5F10105002AECD087
:1025D00002981199C0E90231C0E9004579E700008D
:1025E000000014400000F03F300000000000F04305
:1025F0000000E03F2DE9FF4F95B09A468846064619
:102600000025EEE1252877D100242746F94A01214B
:10261000039400E0044316F8013F203B01FA03F065
:102620001042F7D130782A2811D06FF02F0330787C
:10263000A0F13002092A16D8039A44F0020402EBF2
:10264000820203EB42021044761C0390EFE758F835
:10265000042B0392002A03DA504244F400540390FE
:1026600044F00204761C30782E2816D116F8010F9B
:1026700044F004042A280DD06FF02F023078A0F126
:102680003003092B09D807EB870302EB4303C71874
:10269000761CF3E758F8047B761C30786C280FD052
:1026A00006DC4C2817D068280DD06A2814D104E025
:1026B000742810D07A280FD10DE044F400140AE0F9
:1026C00044F4801401E044F440147278824202D150
:1026D00004F58014761C761C307866280BD013DC49
:1026E000582877D009DC002875D04528F6D0462830
:1026F000F4D047281AD193E118E0632835D0642834
:1027000079D0652812D18BE1702873D008DC672856
:10271000F1D069286FD06E280DD06F2806D1ACE0BB
:1027200073282CD0752874D0782853D05246179926
:1027300090476D1C54E1C4F30250022809D00328CD
:102740000DD0D8F8001004280DD00D6008F1040851
:1027500046E1D8F80010EA17C1E90052F6E7D8F8C8
:1027600000100D80F2E70D70F0E718F8041B8DF8EB
:10277000001000208DF80100EB46012003E058F81E
:1027800004BB4FF0FF3061074FF0000102D40DE0B1
:1027900009F101018946B9420FDA8145F8DB1BF8DE
:1027A00009100029F4D108E009F1010189468142AC
:1027B000FADB1BF809100029F6D103985346A0EB69
:1027C000090721463846179A00F080FA284400EBA2
:1027D000090507E044E008E10DE01BF8010B524653
:1027E00017999047B9F10109F7D253462146384667
:1027F000179AF2E039E00A21C4F302524FF0000BBD
:102800000091022A06D058F8040BC117032A09D0F8
:102810000AE023E008F1070020F00702F2E80201D5
:10282000904605E000B2C117042A01D140B2C11799
:10283000002906DA0A460021404261EB02012D22FE
:1028400002E0220504D52B228DF80420012203E0AA
:10285000E20701D02022F7E7914657E00A2100E085
:1028600010214FF0000B00910BE010214FF0000BF6
:1028700044F004040827009103E008204FF0000B07
:102880000090C4F30252022A05D058F8040B00212C
:10289000032A08D008E008F1070020F00702F2E858
:1028A0000201904603E080B2042A00D1C0B24FF08A
:1028B000000922072AD53278702A07D0DDF800C037
:1028C0008CF0100C5CEA0B0C05D00EE040228DF869
:1028D0000420012208E050EA010306D030238DF8DD
:1028E00004308DF8052002229146009B83F00803F6
:1028F00053EA0B030AD150EA010201D1620705D560
:1029000030228DF804204FF001097F1E3278582ABA
:1029100004D039A20C920CAA02920BE03BA2F9E778
:102920005B46009AFDF7A3FD0C9B9B5C029A521E2E
:102930000292137050EA0102F2D1029804A9081A17
:1029400000F1200B600702D524F4803400E0012759
:102950005F4502DDA7EB0B0000E0002000EB0B0160
:10296000009003984944401A0390E00306D453466C
:102970002146179A039800F0A9F90544002706E0BC
:1029800001A85246C05D179990476D1C7F1C4F45AA
:10299000F6DBE0030CD553462146179A039800F066
:1029A00095F9054404E030205246179990476D1C74
:1029B0000099481E00900029F5DC08E00298029971
:1029C00052460078491C0291179990476D1CBBF143
:1029D0000001ABF1010BF1DC5BE100F065F90544AE
:1029E000761C307800287FF40DAE19B02846BDE87B
:1029F000F08F00000928010030313233343536378A
:102A0000383961626364656600000000303132333A
:102A100034353637383941424344454600000000DA
:102A2000600700D4062708F1070020F00700F0E84F
:102A30000223804603F0004C5FEA0C0001D097A00F
:102A400009E0200501D596A005E0E00701D095A09A
:102A500001E0AFF24C001390307823F0004365287A
:102A60000CD006DC452809D046281DD047287FD148
:102A70003BE0662818D067287AD136E00021112F74
:102A800001DB112000E0781CCDE9000104A90CA8AD
:102A9000FFF7EEFCDDE90D010C9A4FF0000B07F19A
:102AA0000109109200914EE04FF000400097CDE9EF
:102AB000011004A90CA8FFF7DBFCDDE90D020C9B5B
:102AC0000F994FF0000B91461093009211B9791CA9
:102AD00000EB0109B7EB090003D4C0F1FF3B07F19C
:102AE0000109A9EB0700019042E0012F00DA01275C
:102AF0000021112F01DD112000E03846CDE9000151
:102B000004A90CA8FFF7B4FCDDE90D010C9A0091B3
:102B10004FF0000BB946109221070FD4009A4A4596
:102B200003DA914601E0A9F10109B9F1010F05DDD0
:102B3000109AA9F10101515C3029F4D0B84202DAAF
:102B400010F1040F03DA0121CDE9011010E0002893
:102B500003DC8344A9EB000102E0411C494500DD90
:102B60008946A0EB0B00401C01904FF00040029002
:102B7000200705D40198484502DB4FF0FF30019053
:102B800000208DF84B0002980DF14B07B0F1004F7B
:102B900025D002200C902B200D90029800280CDAF2
:102BA000404202902D200D9007E00A210298FDF787
:102BB00048FC3031029007F8011D0C99481E0C901A
:102BC0000029F2DC02980028EFD1791E0D980870D8
:102BD000307800F0200040F0450007F8020D11A801
:102BE000C01BC01D02901398007800B1012000EBBB
:102BF0000901019801EBE071029801440398401A21
:102C0000401E0390E00306D453462146179A0398CA
:102C100000F05CF805441398007818B152461799F3
:102C200090476D1CE00323D553462146179A03981D
:102C300000F04CF805441BE0BBF1000F07DB0098E7
:102C4000584504DD1098179910F80B0001E017990A
:102C500030205246904701980BF1010B401E05F1C0
:102C60000105019004D12E205246179990476D1C02
:102C7000B9F10001A9F10109DEDC05E017F8010B4B
:102C80005246179990476D1C0299481E02900029E0
:102C9000F4DC53462146179A03989EE62D00000067
:102CA0002B000000200000002DE9F0410446002523
:102CB0001E461746880404D405E039462020B04754
:102CC0006D1C641EF9D52846BDE8F0812DE9F04160
:102CD000044600251E469046C80301D5302700E073
:102CE0002027880404D505E041463846B0476D1CCE
:102CF000641EF9D52846BDE8F0810A68531C0B60B4
:102D000010707047FDF752BD002801D0FDF736BDA9
:102D1000704710B51720FDF737FD040001D0FDF70F
:102D20002AFD204610BD00002DE9F05F044605781D
:102D3000407977494FF00009C84631F81070607843
:102D4000401EC6B2042D76D0072D74D00020714AE3
:102D50008246E3791068002B41696ED021F480012E
:102D60004161217A01724169934621F44032426106
:102D7000217A4FF4403303EA01410A4342610021C2
:102D8000042000F0B4FA3A4642F604012E2000F086
:102D9000A1FA3046FFF7BDFA5F4F6049785D51F800
:102DA000202007212B2000F0A2FA785D5C490A5C04
:102DB0000B212B2000F0BFFA5A49282011F80A20D5
:102DC0000B2100F0B8FA785D574951F820200C210A
:102DD000282000F08CFAE079544901EB8000A179B9
:102DE00030F811200221272000F074FA5048042105
:102DF00030F81620272000F06DFAE07910B3A078A3
:102E0000042825D020220621272000F063FA28225A
:102E10002621272000F08FFA4648E17800EB0610C3
:102E200050F821200821272000F061FA6089B0B114
:102E300018E000E001E0012089E741F48001FF088B
:102E400041618EE764220621272000F043FAE3E780
:102E500010220621272000F03DFA1022D8E741F287
:102E60004100608182B22021272000F033FA324FE6
:102E70000C2123203A6800F03AFA07EB46000421BF
:102E80008288232000F026FAA07950B1E0792B49FE
:102E90000A5C0021212000F04EFA4FF003094FF0A8
:102EA000010805F00F00290740EA116062784FF42D
:102EB000402101EA824108434FF4401202EA0951DD
:102EC00008434FF4003202EA4841084321794FF0A9
:102ED000F86202EA81510843617940EAC162002147
:102EE0001F2000F004FAA07861780843E17900041B
:102EF00040EA4132DBF800000021C260082000F007
:102F0000F6F9BDE8F05F422200210D2000F013BA6F
:102F1000F4400008140000207840000898400008A1
:102F2000B0400008B640000880400008C4400008D7
:102F3000D0400008D4400008B8400008C040000855
:102F400070B500210E2000F0A6F80446FFF7E1FE60
:102F50000546002211460E2000F0C9F9402200214A
:102F60000D2000F0E8F90A4A00210F2000F0BFF917
:102F700000F09CF9224600210E2000F0B8F9284606
:102F8000FFF7C2FE034900200968887670BD000083
:102F9000F8FF27241400002070B5354C00220546A8
:102FA00021684A748A760A838A62CA620A634A631B
:102FB00000F08CF82F49884201D0881770BD00F0CE
:102FC0001BF90020FFF7C5F904220021242000F09E
:102FD000B2F91E20FFF736FA216886B2300A48722D
:102FE0000420FFF72FFA10F0FF0F09D00222122160
:102FF0002D2000F0A0F92068018B41F4805101835D
:103000000620FFF71FFA216808600720FFF71AFA69
:1030100001462068416016F01F01017401D11021A2
:103020000174C8B200F0DFF8E80707D0FFF7F8F93D
:103030002068018B41F40061018309E005213620FD
:1030400000F01AF820F400720521362000F042F951
:103050000120FFF77EF900220A212C2000F06BF9F5
:103060000021042000F017F821684861002070BD9D
:10307000140000203001CADE08B589B280B26B4668
:10308000022200F027F89DF800009DF8011000EBE7
:10309000012080B208BD38B5002489B280B26B46E9
:1030A000042200F017F803216846425C491E02EB37
:1030B0000424FAD5204638BD08B589B280B26B46E3
:1030C000012200F007F89DF8000008BD0021084625
:1030D000FFF7E1BF08B551B140F040008DF80000A6
:1030E000C8B27F2907D88DF8010002200BE08DF8C7
:1030F0000000012007E040F080008DF80100C809C1
:103100008DF802000320694600F0E4FA08BD30B4EF
:1031100014460A462146034630BC1120FFF7DABFA9
:103120000346052200211520FFF7D4BF03460522E0
:1031300000211720FFF7CEBF70B50446400701D429
:1031400000F0B4F84FF480752A46E00701D04FF440
:10315000407200210D2000F0BDF8E00711D00321DE
:103160000F20FFF7A9FF00070BD5FFF7E9FEA00727
:1031700004D42A4600210D2000F0ACF84FF0FF30B7
:1031800070BD002070BD024641F604012E2000F003
:10319000A1B8000070B5064603210420FFF78CFF9C
:1031A0000D4D04465EB1324600210C2000F092F82D
:1031B000286844F01002416941F0805105E020F098
:1031C00010022868416921F080514161BDE87040DA
:1031D0000321042000F0AFB81400002002460021B3
:1031E000182000F077B800F01F0040F060020E21B8
:1031F0002B2000F0A0B8000010B5FFF79FF80022C8
:1032000011462C2000F066F8002206212C2000F048
:1032100092F8FFF771F800220321362000F08BF8B6
:103220000120FFF76FFDF0220321362000F083F824
:10323000024900200968887610BD000014000020B3
:103240002DE9F04100250646174F2C46800708D58A
:103250008024224600210D2000F06DF839680120FD
:103260008876F00716D044F0060200210D2000F009
:1032700062F803210F20FFF7FFFE10F4816F0FD0DB
:10328000402200210D2000F056F839680020451E2C
:10329000887605E044F0020200210D2000F04BF892
:1032A0002846BDE8F08100001400002010B503217D
:1032B0000F20FFF701FF00F0800100F04000B1EBAC
:1032C000400F06D001220321BDE810400D2000F080
:1032D00032B810BD08B589B28DF80020120A8DF8F9
:1032E000012080B26B46022200F02DF808BD38B5EF
:1032F00000236C46E254120A5B1C042BFADB89B2F1
:1033000080B22346042200F01EF838BD7CB5144676
:103310001D4689B280B26B46052200F014F80021E8
:1033200068464454240A44EA05642D0A491C0529C8
:10333000F7DB30467CBD07B589B280B202AB012213
:1033400000F001F80EBD08B551B140F0C0008DF895
:103350000000C8B27F2909D88DF8010002200DE0D5
:1033600040F080008DF80000012007E040F0800070
:103370008DF80100C8098DF802000320694600F0AD
:1033800031FD08BD10B514460244B2F5806F07D870
:103390000B46821E21460920FFF7D5FF002010BDF5
:1033A0004FF0FF3010BD0000890541EAC2320449E8
:1033B0000968C96801430A4300210820FFF797BF45
:1033C0001400002013B50A23012269460248FEF7C3
:1033D000C7FA00981CBD0000080100207CB500243D
:1033E00025466846FFF79CFE042069462D0245EA03
:1033F000146522020C5C401E144340B20028F5DA2A
:10340000204629467CBD7CB5002425466846FFF74A
:103410008DFE042069462D0245EA146522020C5CEB
:10342000401E144340B20028F5DA204629467CBDF0
:1034300000B585B000F07CF900F0ECFA0120FFF750
:10344000ABFD401C22D0FFF741FE0246FF2312A134
:103450006846FEF70DFF00216A460846FEF720FD8C
:1034600000F0C4FA1048FFF75FFC48F2CF00FFF706
:103470008AFE0020FFF7B2FE0CA201210020FEF719
:103480000FFD0F49FF20087005B000BD00210DA2FF
:103490000846FEF705FDFEE76465764944203D20B9
:1034A000255820255800000024000020696E69740A
:1034B0006961746F722073756363656564000000F1
:1034C00088010020696E69746961746F7220666199
:1034D000696C656400000000574D584C4FF00309BB
:1034E00005F1100705F1090A05F502780126207893
:1034F0000428FCD2DFE800F00217308B60684E49E8
:10350000401C10396060887000221020FFF73AFFDD
:10351000012200211020FFF747FF0020FFF790FE57
:1035200084F80090E3E700210F20FFF7B4FD444941
:10353000A0600842DBD0400408D54FF4814200214E
:103540000F20FFF7D4FE02202070D0E73D4A002173
:103550000F20FFF7CCFECAE74FF4804200210F2076
:10356000FFF7C5FE00211020FFF795FD00F07F0159
:1035700000223148FFF7CBFD28780A2804D00B2819
:1035800014D00C2840D12BE0FFF73DFFC7E9000124
:1035900029495046B83100F07FF82B49281D00F02A
:1035A0007BF8FFF71BFFC8E9000111E0FFF72BFFD5
:1035B000C7E9020124495046A03900F06DF82249BC
:1035C000281D083100F068F8FFF708FFC8E902017C
:1035D00026700020FFF7DEFD0020FFF7ADFD13E0B1
:1035E000FFF711FFC7E9040117495046983900F069
:1035F00053F81549281D103100F04EF8FFF7EEFE84
:10360000C8E9040184F8009000F046FA6FE7FFF77C
:10361000FAFEFCF7D6FE00220C4BFCF7B9FDFCF7D6
:10362000DCFE02460B4600210A20FFF76FFE032056
:10363000FFF706FE26705AE79801002018000020C8
:1036400000D0052400900524F802002050DA014241
:10365000FDF7D0F9FEF7B3FCFEF7DCF9FEF74EFA02
:10366000FEF770FAFEF7A2FA4FF4FA70FDF79EF833
:10367000FEF77EFB074C207810B1FFF7D9FE01E082
:1036800000F074F8207810B1FFF726FF01E000F099
:10369000CBF8FEE70000002030B50023C1E900337D
:1036A0001A460424120242EA13621B02C1E90032E4
:1036B000055D2B430B60641EF4D530BD10B50021B1
:1036C0004254120A42EA03621B0A491C0529F7DB2D
:1036D00010BD00002DE9F041A2B01F4615468846F6
:1036E00004461148FDF7A6FC0128FAD10F4E00222E
:1036F00010213046FDF76AF90A200090601983B264
:1037000001AA41460848FDF7DCFD012210213046A0
:10371000FDF75CF901A801192A463846FCF714FDAB
:1037200022B00020BDE8F0816800002000080140C0
:103730007FB501241120CDE900400B4E02256946DA
:1037400003953046FDF752F8002201213046FDF77F
:103750003DF92046FEF764FC002000F06FF9284692
:10376000FDF724F87FBD00000008014010B586B0C9
:10377000FFF7DEFF00F04EF90120FFF70DFC401CC3
:103780002BD0FFF7A3FC02460A2317A16846FEF7D9
:103790006FFD194C0A20002120706A460846FEF78A
:1037A0007FFB00F023F91548FFF7BEFA48F2CF007F
:1037B000FFF7E9FC0020FFF711FD11A20121002015
:1037C000FEF76EFBFF2060700020FFF7E3FC06B001
:1037D0000020BDE81040FFF7AFBC00210DA2084655
:1037E000FEF75EFBFEE700006465764944203D205D
:1037F00025582025580000004804002058000020CB
:10380000726573706F6E646572207375636365654E
:1038100064000000726573706F6E6465722066618B
:10382000696C656400000000684E694CA6F12005D3
:10383000002705F1090820780528FCD2DFE800F010
:10384000031B6A90480000210F20FFF724FC614908
:10385000A0600842EFD0400407D54FF48142002118
:103860000F20FFF744FD012030E05B4A00210F20CC
:10387000FFF73DFDDFE74FF4804200210F20FFF707
:1038800036FD00211020FFF706FC00F07F014F48B5
:1038900000221038FFF73BFC4C4810380078FF2816
:1038A00007D027700020FFF775FC0020FFF744FCCD
:1038B000C1E728780A38C0B256F82010022904D28D
:1038C000491C46F82010042000E003202070B2E7D5
:1038D000FFF784FDC4E908012A780A2A04D00B2ADC
:1038E00007D00C2A0FD110E0FCF76BFD00223B4BF8
:1038F00003E0FCF766FD0022394BFCF749FCFCF7BE
:103900006CFDC4E908010220E0E7FCF75AFD002243
:10391000344BF2E7FFF762FDC4E90401FFF773FDE2
:10392000C4E906016068401C6060A870D4E9042303
:103930004046FFF7C3FED4E90623281DFFF7BEFE6D
:103940002249002220391020FFF71CFD012200210E
:103950001020FFF729FDD4E9082300210A202EE0DA
:10396000FFF73CFDC4E90401FFF74DFDC4E9060182
:103970006068401C6060A870D4E904234046FFF7EB
:103980009DFED4E90623281DFFF798FE0F4900226B
:1039900020391020FFF7F6FC012200211020FFF74C
:1039A00003FDD4E90601FCF70CFD00220E4BFCF7E9
:1039B000EFFBFCF712FD02460B4600210A20FFF741
:1039C000A5FC0320FFF73CFC277034E768040020C7
:1039D0003000002000D0052400900524000BB341E6
:1039E000000BC341000BD34150DA014210B5084C23
:1039F0002068016821F0400101600820E061204654
:103A0000FDF71BFB2068016841F04001016010BD1B
:103A10006800002010B5084C2068016821F04001C2
:103A200001602020E0612046FDF707FB2068016867
:103A300041F04001016010BD680000207FB5002406
:103A4000134E012580B113480095CDE90104694664
:103A50003046FCF7CBFE0620FDF72DF800220521AD
:103A60000620FDF735F87FBD0620FDF713F811207D
:103A70000095CDE901040320039069463046FCF728
:103A8000B5FE012211463046FCF7A0FF7FBD0000C5
:103A900000080140000011102DE9F04FC3489DB00F
:103AA00000780D900A38C4B2C048103000EBC40151
:103AB0001091D1E90001FCF784FCBD4ABD4BFCF735
:103AC0000EFCBA4A0546403202EBC4020F92C2E92C
:103AD0000001CDE90710B5480B91B83000EBC401E7
:103AE0000E91D1E90001FCF76CFCB14AB14BFCF737
:103AF000F6FBAE4A0746E83202EBC4021292C2E974
:103B00000001AD48884600EBC4011191D1E90001E4
:103B1000FCF757FCA64AA74BFCF7E1FBA64A8246F6
:103B2000303202EBC4021492C2E90001A2488B4673
:103B3000A83000EBC4011391D1E90001FCF741FC6E
:103B40009B4A9C4BFCF7CBFB9B4A0646D83202EBC8
:103B5000C4021692C2E9000194488946583000EB2D
:103B6000C4011591D1E900012A460B9BFCF7B1FB7A
:103B7000FCF74BFC01460D988C4A0A388832C0B2DB
:103B800002EBC005B1F5000F08DB894AD5E9000159
:103B9000521C8A4BFCF7FCFAC5E90001D5E900018B
:103BA000DDE90732FCF7F4FA804A4346703202EB53
:103BB000C4020A92C2E900017F483A46603800EB2D
:103BC000C4010991D1E90001FCF783FBFCF71DFC5E
:103BD000764A7949127830390A3AD2B201EBC205F5
:103BE000B0F5000F08DB724AD5E90001521C734B97
:103BF000FCF7CEFAC5E90001D5E900013A46434693
:103C0000FCF7C6FA6C4A5B46483A02EBC4020C92D7
:103C1000C2E9000168485246483000EBC4010B91EC
:103C2000D1E90001FCF755FBFCF7EFFB5F49624A65
:103C3000097878320A39C9B202EBC105B0F5000F34
:103C400008DB5B4AD5E90001521C5C4BFCF7A0FA8B
:103C5000C5E90001D5E9000152465B46FCF798FA38
:103C6000554A0746603202EBC4021892C2E90001CD
:103C700051488846F03000EBC4018B4603C93246F8
:103C80004B46FCF726FBFCF7C0FB484A4C49127830
:103C90000A3AD2B201EBC205B0F5000F08DB444A84
:103CA000D5E90001521C454BFCF772FAC5E9000149
:103CB000D5E9000132464B46FCF76AFA404A183A09
:103CC00002EBC402924603C23D48183000EBC40028
:103CD0008146D0E90010CDE904103748CDE90278DB
:103CE000183800EBC406D6E90001CDE900012F48E1
:103CF000A03000EBC40533A0D5E900230D99FEF7F1
:103D0000A7FA1098294AD0E90010283202EBC40221
:103D1000C2E900100F98D0E900121598C0E900120E
:103D20000A99254AD1E90001C5E900010E98903AA7
:103D300002EBC402D0E90010C2E900101299D1E9E7
:103D400000020999C1E900020C991B4AD1E900015E
:103D5000C6E900011199183202EBC402D1E9000151
:103D6000C2E900011498D0E900120B98C0E90012D2
:103D70001899114AD1E90001903202EBC402C2E95C
:103D8000000113990E4AD1E90001603A02EBC40226
:103D9000C2E900011698D0E90012CBE90012DAE975
:103DA0000012C9E900121DB0BDE8F08F9801002093
:103DB000FA48CE3B1835B13DF802002018353140A5
:103DC0001804002025583A252E31356C6620252E02
:103DD00031356C6620252E31356C6620252E313527
:103DE0006C660A002DE9F0411E46144688460746D7
:103DF0000F48FDF71FF90128FAD10E4D00221021BE
:103E00002846FCF7E3FD0A233A4641460848FDF7F9
:103E1000A5F9A2B20A2331460548FDF79FF9012210
:103E200010212846FCF7D2FD0020BDE8F0810000FB
:103E300068000020000801400000000000000000B1
:103E40000102030406070809000000000102030440
:103E50000000000000000000005F000000000700FC
:103E6000070000147F147F1400242A7F2A120323E2
:103E70001008046200364956205000000007000078
:103E800000001C22410000000041221C0022147F7F
:103E900014220008083E0808000000403000000816
:103EA0000808080800000040000000201008040274
:103EB000003E5149453E0000427F400000625149AA
:103EC0004946002141494D33001814127F10002744
:103ED00045454539003C4A4949310001710905030E
:103EE00000364949493600464949291E0000001458
:103EF00000000000403400000008142241000014BB
:103F0000141414140000412214080002015905027F
:103F1000003E415D594E007C1211127C007F4949E0
:103F20004936003E41414122007F4141413E007FF0
:103F300049494941007F09090901003E4141517148
:103F4000007F0808087F0000417F410000204040BA
:103F5000403F007F08142241007F40404040007FE6
:103F6000020C027F007F0408107F003E4141413E69
:103F7000007F09090906003E4151215E007F0919B1
:103F800029460026494949320001017F0101003FCD
:103F90004040403F001F2040201F007F2018207F0E
:103FA000006314081463000304780403006151499A
:103FB0004543007F7F414141000204081020004139
:103FC00041417F7F0010080408108080808080803D
:103FD000000001020400002054545478007F44443F
:103FE000443800384444444400384444447F003852
:103FF0005454545800087E0909020018A4A4A47857
:10400000007F040404780000447D40000040808468
:104010007D00007F101028440000417F4000007C9C
:104020000438047C007C0404047800384444443898
:1040300000FC444444380038444444FC007C0804F8
:1040400004040048545454240000043F4444003CF9
:104050004040207C001C2040201C007C4030407CE4
:10406000004428102844001CA0A0A07C00446454F4
:104070004C440000FF7E3C180000010203040005D0
:10408000405C0000A05C0400C06C0800805C040080
:10409000E03F1E00E07D1E000704000908054008FF
:1040A00009104008080540081D0400081D04000808
:1040B0001E265626BEBED8BC07A9022570889B883E
:1040C000401008000A00160001000600010002006E
:1040D00087008D002D001A3152001A339A001A35CC
:1040E0001D011A376B003B31BE003B335E013B358F
:1040F00096023B37000098599859EA518E421E4566
:10410000142E0080EA51F4283233E03A703DE03A50
:10411000C235842BC2353233C235C235AE47E03AA0
:104120005038A230503800004841000800000020FC
:1041300068000000DA220008B04100086800002092
:1041400010080000EA220008010000000100000041
:1041500010000000000000000024F4004C010020CA
:104160000000000000000000000000000202080241
:104170000909010000002104000000000000000007
:10418000000000000000000000000000000000002F
:10419000000000000000000000000000000000001F
:1041A00002020802090901000000210400000000C9
:04000005080000ED02
:00000001FF
