:020000040800F2
:10000000F8040020050100082B110008550F000816
:100010002911000871010008BD150008000000004A
:10002000000000000000000000000000B7130008FE
:100030007301000800000000B5130008B9130008A0
:100040001F0100081F0100081F0100081F01000810
:100050001F0100081F010008750100081F010008AA
:100060001F0100081F0100081F0100081F010008F0
:100070001F0100081F0100081F0100081F010008E0
:100080001F0100081F0100081F0100081F010008D0
:100090001F0100081F0100081F0100087B01000864
:1000A0001F0100081F0100081F0100081F010008B0
:1000B0001F010008211400081F0100081F0100088B
:1000C0001F0100081F0100081F0100081F01000890
:1000D0001F0100081F0100081F0100081F01000880
:1000E0001F0100081F0100081F010008DFF810D0E1
:1000F00000F02CF800480047FD150008AFF3008021
:10010000F80400200648804706480047FEE7FEE75F
:10011000FEE7FEE7FEE7FEE7FEE7FEE7FEE7FEE7B7
:100120001D140008ED000008D2B201E000F8012B18
:10013000491EFBD270470022F6E710B513460A4667
:1001400004461946FFF7F0FF204610BD064C074D48
:1001500006E0E06840F0010394E807009847103497
:10016000AC42F6D3FFF7C6FF3C1600085C16000849
:10017000FEE77047012000F019B8202000F016B803
:1001800072B6FEE770B5044600F012F90546601C31
:1001900002D004480078044400F00AF9401BA04251
:1001A000FAD370BD0000002070470000044910B56C
:1001B0000A68024202D00860FFF7F6FF10BD000097
:1001C000140401402DE9F84FDFF8B891002409F13B
:1001D000040A0AF1040B23460F270BF1040EC9E0B1
:1001E0000125A5402A40AA427DD1674ED1F804C01E
:1001F000ACEB0608B44532D014DCBCF1030F3AD0A6
:1002000009DCBCF1000F2AD0BCF1010F1CD0BCF1FD
:10021000020F31D11DE0BCF1110F17D0BCF1120F4C
:100220002AD119E0B8F5881F19D006DCB8F5803F4F
:1002300015D0B8F5801F1FD111E0B8F5001F0ED002
:10024000B8F5041F18D10AE0CB6815E0CB681B1D78
:1002500012E0CB6808330FE0CB680C330CE08B68FE
:100260002BB1012B4FF0080303D0456104E00423B8
:1002700002E0056100E00023FF2A01D8064601E004
:1002800000F104064FEA840501D9A5F12005D6F84E
:10029000008007FA05FC28EA0C0803FA05F548EA8D
:1002A0000508C6F800804D68ED0062D5374DAE698F
:1002B00046F00106AE61AD6924F0030605F00105C4
:1002C0000095334D06EB050CDCF80850A607360FF9
:1002D00007FA06F825EA0805DFF8B880404503D19B
:1002E0004FF0000817E044E0DFF8AC80404502D151
:1002F0004FF001080FE0DFF8A480404502D14FF035
:10030000020808E0DFF89880404502D14FF003086A
:1003100001E04FF0040808FA06F848EA0508CCF8AE
:1003200008804D68D9F80060ED034D4601D51643AD
:1003300000E096432E604D68DAF80060AD03554644
:1003400001D5164300E096432E604D68DBF800604F
:10035000ED025D4601D5164300E096432E604D68E0
:10036000DEF80060AD02754601D5164300E0964305
:100370002E60641C0D682A46E5407FF431AFBDE86D
:10038000F88F00000004014000001110001002402E
:100390000000014000080140000C01400010014035
:1003A000001401400AB1016170470904FBE7000035
:1003B0000148806870470000000000200248816802
:1003C000027811448160704700000020074810B592
:1003D000016841F010010160032000F075F80F2062
:1003E00000F006F800F024F8002010BD00200240C4
:1003F00070B50D4D04464FF47A712878B1FBF0F0DA
:100400000A490968B1FBF0F000F082FB48B9102CF2
:1004100007D200222146501E00F036F800206C6002
:1004200070BD012070BD0000000000200C00002005
:100430000C4808B5816941F001018161816901F0D1
:1004400001010091C16941F08051C161C06900F0B2
:10045000805000900448416821F0E06141F0007153
:10046000416008BD0010024000000140002809DB87
:1004700000F01F02012191404009800000F1E020BE
:10048000C0F8001170470000F0B40E4B1B680C461A
:10049000C3F30223C3F10705042D00D90425191D58
:1004A000072901D2002300E0DB1E012606FA05F130
:1004B000491E214099409E40761E16403143F0BCB3
:1004C00001F07DB80CED00E0064900F00702086875
:1004D0004FF6FF03184040EA0220034A1043086029
:1004E000704700000CED00E00000FA052DE9F04730
:1004F0000F46050061D0434E306800F00700B84257
:1005000009D2306820F0070038433060306800F0CE
:100510000700B84251D128683B4C810712D54007EB
:1005200003D5606840F4E06060602878000703D578
:10053000606840F4605060606068A96820F0F00076
:10054000084360602878C00728D06868012810D068
:100550002168022810D0890700292EDA616821F06D
:10056000030101436160FFF723FF804641F28839B0
:100570000DE021688903EFE78901EDE7FFF718FF38
:10058000A0EB0801494502D90320BDE8F087606867
:10059000696800F00C00B0EB810FEFD1306800F01B
:1005A0000700B8420BD9306820F0070038433060AC
:1005B000306800F00700B84201D00120E5E7287854
:1005C000400705D56068E96820F4E0600843606092
:1005D0002878000706D56068296920F4605040EA51
:1005E000C100606000F038F86168084AC1F3031187
:1005F000515CC8400649086006480068FFF7F8FEED
:100600000020C2E70020024000100240221600082D
:100610000C000020040000200448054900684968D7
:10062000044AC1F30221515CC84070470C0000200D
:100630000010024032160008044805490068496865
:10064000044AC1F3C221515CC84070470C0000202D
:10065000001002403216000813A185B00FC98DE8C2
:100660000F0015A0154A00680490516801F00C00B5
:10067000042804D0082804D0114805B07047114858
:10068000FBE7C1F38343C9031DF8030009D5516893
:1006900004AAC1F34041515C0A4A5043B0FBF1F057
:1006A000EBE709494843E8E70203040506070809A0
:1006B0000A0B0C0D0E0F101001020000001002407A
:1006C00000127A000024F40000093D002DE9F84FE3
:1006D000040070D02078C04DC00749D06868C0F3CE
:1006E0008100012807D06868C0F38100022809D181
:1006F0006868C00306D52868800339D5606800287B
:10070000E7D035E06068B0F5803F0BD010B1B0F5B0
:10071000A02F11D0286820F480302860286820F4A9
:10072000802002E0286840F480302860606890B142
:10073000FFF73EFE06460AE0286840F48020286065
:10074000F0E700BFFFF734FE801B642873D82868E9
:100750008003F7D50CE0FFF72BFE064605E000BF4F
:10076000FFF726FE801B6428F0D828688003F7D4A2
:1007700020789A4E80074FF001094FF0000839D5D4
:10078000686810F00C0F07D06868C0F38100022879
:1007900009D16868C00306D42868800714D5206989
:1007A000012808D110E02069B0B1C6F80090FFF729
:1007B000FFFD074605E00AE1FFF7FAFDC01B02282E
:1007C000C4D828688007F7D52868616920F0F80048
:1007D00040EAC10028600DE0C6F80080FFF7E8FDA0
:1007E000074604E0FFF7E4FDC01B022823D8286871
:1007F0008007F7D4207800072CD57948A169D9B1B2
:10080000C0F80090FFF7D4FD074604E0FFF7D0FDE5
:10081000C01B02280FD8686A8007F7D571484FF4CB
:10082000FA510068B0FBF1F0009000BF0098411E43
:100830000091FAD20EE080E0C0F80080FFF7B8FD2A
:10084000074604E0FFF7B4FDC01B022875D8686AAC
:100850008007F7D42078400760D5E8690027C000FA
:1008600008D4E86940F08050E861E869012700F0A9
:10087000805000905C480168C90513D40168834624
:1008800041F480710160FFF793FD824606E000BFEE
:10089000FFF78EFDA0EB0A0064284ED8DBF80000BD
:1008A000C005F5D5E06801280AD008B1052813D0A5
:1008B000286A20F001002862286A20F0040002E083
:1008C000286A40F001002862E06841F2883B98B154
:1008D000FFF76EFD82460BE0286A40F004002862B4
:1008E000EEE700BFFFF764FDA0EB0A0159455AD8B7
:1008F000286A8007F6D50CE0FFF75AFD824605E02E
:10090000FFF756FDA0EB0A0159454CD8286A80072D
:10091000F6D41FB1E86920F08050E861E06988B33F
:100920006968C1F38101022944D00228C6F86080B9
:1009300004D0FFF73DFD044638E034E0FFF738FD12
:10094000074604E0FFF734FDC01B02282BD82868B7
:100950008001F7D4206AB0F5803F05D16868A168AE
:1009600020F4003008436860D4E90801084369684E
:1009700021F4741108436860C6F86090FFF718FD11
:10098000044606E025E000BFFFF712FD001B022829
:1009900009D828688001F7D51BE000BFFFF708FDE4
:1009A000001B022802D90320BDE8F88F28688001C7
:1009B000F4D40EE00128F7D06868226A00F4803190
:1009C000914204D1616A00F47010884201D0012084
:1009D000EAE70020E8E70000001002400000424281
:1009E000800442420C0000200070004070B50400FA
:1009F00009D0606A002540B125616561A56294F85F
:100A0000510040B10CE0012070BD6068B0F5827FFC
:100A1000F4D0E561F2E784F85050204600F040F849
:100A2000022084F851002068016821F04001016033
:100A3000A088218900F4827001F404410843A1894F
:100A400001F400610843217C01F002010843217D8B
:100A500001F001010843218B01F400710843217F5B
:100A600001F03801084394F8201001F08001084398
:100A7000218D01F40051084321680860A069042118
:100A800001EA1040216848602068C16921F40061D2
:100A9000C1616565012084F85100002070BD00002F
:100AA00030B585B00024009401940294039400684A
:100AB0001449884223D11448816941F480518161ED
:100AC000816901F480510491816941F004018161DF
:100AD00080690E4D00F004000490A02000900220D8
:100AE00001900320039069462846FFF76BFB4020E6
:100AF000CDE90004694628460294FFF763FB05B080
:100B000030BD0000003001400010024000080140EC
:100B100010B5401EB0F1807F01D3012010BD4FF011
:100B2000E02460610F21601700F049FD0020A06102
:100B300007202061002010BD7047704770B590F805
:100B40003C20012A26D0012480F83C40022280F873
:100B50003D2003685A689D6822F070060A68324397
:100B60005A600D4B02689A4208D0B2F1804F05D00E
:100B70000A4B9A4202D00A4B9A4204D1496825F0A6
:100B800080031943916080F83D40002180F83C10BB
:100B9000084670BD022070BD002C014000040040DA
:100BA0000008004010B5040003D094F83D0010B1D7
:100BB00007E0012010BD002084F83C00204600F032
:100BC0001FF8022084F83D00211D206800F02EFC53
:100BD000012084F8460084F83E0084F83F0084F841
:100BE000400084F8410084F8420084F8430084F80F
:100BF000440084F8450084F83D00002010BD00004A
:100C000008B500680B49884212D10B48C16941F010
:100C10000201C161C069002200F00200009011468B
:100C20001D20FFF731FCBDE808401D20FFF71EBC6A
:100C300008BD0000000400400010024070B50446EA
:100C400090F83C00012817D0012584F83C50022080
:100C500084F83D002068826822F0770222F47F4207
:100C600082600868502830D00DDC20284DD005DC8B
:100C700098B310283BD148E0022070BD302844D002
:100C8000402834D139E0602828D0702806D0B0F54B
:100C9000805F2CD0B0F5005F29D10AE0CB68D1E9A4
:100CA0000121206800F0F8FB2068816841F077019D
:100CB00009E0CB68D1E90121206800F0EDFB206854
:100CC000816841F48041816011E0CA684968206808
:100CD00000F0F4FB5021206807E016E0CA6849687C
:100CE000206800F0FCFB6021206800F0DFFB84F846
:100CF0003D50002084F83C0070BDCA6849682068F7
:100D000000F0DCFB40212068EFE722680146104636
:100D1000EBE7704770B50446006801694FF00005C5
:100D2000C943890715D4C168C943890711D4E91E8D
:100D3000016101202077206880698007204602D069
:100D4000FFF7E7FF04E000F098F8204600F096F87F
:100D5000257720680169C943490717D4C168C94389
:100D6000490713D46FF00401016102202077206845
:100D7000806910F4407F204602D0FFF7CAFF04E0EC
:100D800000F07BF8204600F079F8257720680169AB
:100D9000C943090716D4C168C943090712D46FF0C3
:100DA00008010161042020772068C069800720467F
:100DB00002D0FFF7AEFF04E000F05FF8204600F03D
:100DC0005DF8257720680169C943C90617D4C16851
:100DD000C943C90613D46FF01001016108202077C0
:100DE0002068C06910F4407F204602D0FFF791FFD1
:100DF00004E000F042F8204600F040F82577206833
:100E00000169C943C90708D1C168C943C90704D1E9
:100E1000891E0161204600F032F820680169C9434B
:100E2000090609D4C168C943090605D46FF08001D9
:100E300001612046FFF780FE20680169C943490629
:100E400009D4C168C943490605D46FF04001016166
:100E5000204600F015F820680169C94389060BD4C3
:100E6000C168C943890607D46FF02001016120469B
:100E7000BDE87040FFF761BE70BD704770477047B6
:100E8000704770B5040004D094F83D00002510B1FF
:100E900006E0012070BD84F83C50204600F022F8A6
:100EA000242084F83D002068C16821F40051C1600D
:100EB000204600F027FB2068016921F49041016180
:100EC0002068416921F02A0141612068C16841F42C
:100ED0000051C1602564202084F83D0084F83E0064
:100EE000002070BD30B585B00024009401940294B8
:100EF000039400681449884224D11448C16941F41C
:100F00008021C161C16901F480210491816941F0AE
:100F10000801816180690E4D00F0080004904FF4D3
:100F200080600090022001900320039069462846CB
:100F3000FFF748F9E814CDE9000469462846029411
:100F4000FFF740F905B030BD0048004000100240F6
:100F5000000C0140FEE700002DE9F04385B00025BC
:100F600033480095019502950395816941F0200170
:100F70008161816901F020010491816941F00401DE
:100F80008161816901F004010491816941F00801E6
:100F900081618069274F00F0080004900122102130
:100FA0003846FFF7FFF9DFF89090012243F2020183
:100FB0004846FFF7F7F9DFF884800124CDE90048BF
:100FC000694638460295FFF7FDF8102003268DE8A4
:100FD000710069463846FFF7F5F80227CDE900743D
:100FE000CDE9024669464846FFF7ECF830038DE844
:100FF000710069464846FFF7E5F82020CDE9000872
:10100000694602974846FFF7DDF8002203210620D3
:10101000FFF73AFA0620FFF729FA002204211720E9
:10102000FFF732FA1720FFF721FA05B0BDE8F08389
:101030000010024000080140000C014000001110A7
:10104000104810B50E4901604FF4827141600021D3
:101050008160C1604FF400720161C0E90512202275
:10106000C0E90721416281620A21C162FFF7BEFC2B
:10107000002803D0BDE81040FFF782B810BD000083
:10108000003001401000002010B586B00024174841
:10109000009401940294039404941349059401600C
:1010A0004721C0E901144FF6FF71C0E903148461C0
:1010B000FFF778FD08B1FFF763F84FF48050009018
:1010C00069460A48FFF7BAFD08B1FFF759F80494DA
:1010D00004A906480594FFF731FD002801D0FFF769
:1010E0004FF806B010BD000000040040680000206A
:1010F0000C4810B50A4901604FF4E131416000210C
:1011000081600C22C160C0E904128161C161FFF7F6
:10111000B8FE002803D0BDE81040FFF731B810BD7D
:1011200000480040B0000020FEE7FEE770B5002454
:1011300004F1B000C0B2002100F037F90021022014
:1011400000F033F90021102000F02FF900250121D3
:10115000002000F02AF96D1CEDB2802DF7D3641C3D
:10116000E4B2082CE4D370BD10B5044600F02AF8B0
:10117000782000F073F800F05FF8002000F06EF8BF
:1011800000F05AF8204600F069F800F055F8BDE884
:10119000104000F033B810B5044600F013F8782082
:1011A00000F05CF800F048F8402000F057F800F03C
:1011B00043F8204600F052F800F03EF8BDE8104039
:1011C00000F01CB870B501220B4D5403214628468F
:1011D000FFF7E8F80122160331462846FFF7E2F848
:1011E000002221462846FFF7DDF831462846BDE8B3
:1011F00070400022FFF7D6B8000C014070B50D4DCD
:101200004FF48054002221462846FFF7CBF86600B1
:10121000002231462846FFF7C5F80122214628461C
:10122000FFF7C0F831462846BDE870400122FFF7BD
:10123000B9B80000000C014070B50122064D14033E
:1012400021462846FFF7AEF821462846BDE8704003
:101250000022FFF7A7B80000000C01402DE9F04183
:10126000134F05464FF48056002231463846FFF7AB
:1012700099F800244FF40058280601D5012200E017
:10128000002241463846FFF78DF86806050E012218
:1012900031463846FFF786F8002231463846FFF7D8
:1012A00081F8641CE4B2082CE6D3BDE8F0810000AC
:1012B000000C014010B50021AE2000F076F80021AE
:1012C000402000F072F80021B02000F06EF80021FC
:1012D000C82000F06AF80021812000F066F80021A3
:1012E000FF2000F062F80021A12000F05EF800214C
:1012F000A62000F05AF80021A82000F056F800219E
:101300001F2000F052F80021D32000F04EF80021F9
:10131000084600F04AF80021D52000F046F80021E8
:10132000F02000F042F80021D92000F03EF8002122
:10133000222000F03AF80021DA2000F036F80021EF
:10134000022000F032F80021DB2000F02EF800210E
:10135000492000F02AF800218D2000F026F8002115
:10136000142000F022F80021AF2000F01EF8FFF753
:10137000DDFE0021BDE810400846AFF3008010B547
:101380000446B031C8B2002100F00FF8102040EA46
:101390001410002100F009F804F00F00BDE810401F
:1013A00040F001000021AFF3008009B1FFF7F3BE68
:1013B000FFF7DABE70477047FFF700B810B590B07E
:1013C00028216846FEF7B7FE14210AA8FEF7B3FEEF
:1013D00001210804CDE90010420002920224049188
:1013E000CDE907404FF4E01009906846FFF76EF929
:1013F00008B172B6FEE70F20CDE90A0400204FF4D1
:101400008061CDE90C010E9002210AA8FFF76EF869
:10141000002801D072B6FEE710B010BD7047000082
:101420000148FFF777BC000068000020F0B50268B3
:10143000164B174C174D4FF08047984205D0B842D5
:1014400003D0A04201D0A84203D122F070064A681E
:101450003243984205D0B84203D0A04201D0A842FE
:1014600003D122F44074CA6822434C6922F08002FE
:10147000224302608A68C2620A688262984201D18D
:101480000969016301214161F0BD0000002C0140A8
:10149000000400400008004010B5846842EA0322BE
:1014A00024F47F440A432243826010BD826822F004
:1014B00070020A4342F007018160704710B5036A69
:1014C000046A24F001040462846924F0F00444EA0C
:1014D000021423F00A020A438461026210BD10B5AF
:1014E000036A23F0100303628369046A23F47043E0
:1014F00043EA023224F0A00343EA0111826101624F
:1015000010BD000070B5044600680169E26821F46E
:101510004051114301612169A06808436169084392
:101520002168CA6841F20C639A430243CA6020688A
:101530004169A26921F44071114341611E4920684B
:10154000884202D1FFF778F801E0FFF765F800EB79
:10155000C00101EB0012606864218000B2FBF0F36F
:10156000B3FBF1F36FF018067343B2FBF0F5B2FB77
:10157000F0F605EB8305322303EB0515B5FBF1F51A
:10158000B6FBF1F605F0F00505EB0615B2FBF0F63B
:10159000B2FBF0F0B0FBF1F06FF01802504306EB35
:1015A000800003EB0010B0FBF1F0216800F00F00A9
:1015B0002844886070BD000000380140FEE709073C
:1015C000090E002804DB00F1E02080F800147047C9
:1015D00000F00F0000F1E02080F8141D704702E0D9
:1015E00008C8121F08C1002AFAD1704770470020AE
:1015F00001E001C1121F002AFBD17047FEF7E6FE91
:10160000FFF7DCFEFFF7A8FCFFF71AFDFFF73CFD34
:10161000FFF76EFD4FF4FA70FEF7B4FDFFF74AFED8
:10162000FEE70000000000000000010203040607BE
:101630000809000000000102030400005C16000815
:101640000000002010000000DE1500086C160008E5
:1016500010000020E8040000EE1500080100000062
:0C16600010000000000000000024F40056
:04000005080000ED02
:00000001FF
