:020000040800F2
:10000000981900209D0100085716000845140008A3
:10001000551600082D020008BD1C00080000000055
:1000200000000000000000000000000005010008C2
:100030002F02000800000000490100084D190008C7
:10004000B7010008B7010008B7010008B7010008B0
:10005000B7010008B701000831020008B701000825
:10006000B7010008B7010008B7010008B701000890
:10007000B7010008B7010008B7010008B701000880
:10008000B7010008B7010008B7010008B701000870
:10009000B7010008B7010008B701000837020008DF
:1000A000B7010008B7010008B7010008B701000850
:1000B000B7010008DD190008E9190008B7010008B8
:1000C000B7010008B7010008B7010008B701000830
:1000D000B7010008B7010008B7010008B11C00080B
:1000E000B7010008B7010008B7010008DFF810D019
:1000F00000F08AF800480047B9210008AFF30080FB
:1001000098190020224B19680868B0E8F00F80F3B6
:100110000988BFF36F8F4FF0000080F311884EF015
:100120000D0E70470000000006480068006880F36C
:10013000088862B661B6BFF34F8FBFF36F8F00DFE1
:1001400000BF00BF08ED00E0EFF30980BFF36F8F41
:100150000F4B1A6820E9F00F106008B54FF05000FF
:1001600080F31188BFF34F8FBFF36F8F02F03AFF18
:100170004FF0000080F31188BDE808401968086856
:10018000B0E8F00F80F30988BFF36F8F704700BFAE
:1001900018000020EFF305807047000006488047F4
:1001A00006480047FEE7FEE7FEE7FEE7FEE7FEE75C
:1001B000FEE7FEE7FEE7FEE7D9190008ED000008BC
:1001C00040EA01039B0703D009E008C9121F08C0D9
:1001D000042AFAD203E011F8013B00F8013B521E59
:1001E000F9D27047D2B201E000F8012B491EFBD2D0
:1001F00070470022F6E710B513460A460446194632
:10020000FFF7F0FF204610BD064C074D06E0E06802
:1002100040F0010394E8070098471034AC42F6D34D
:10022000FFF768FFE43E0008043F0008FEE7704760
:10023000012000F089B8202000F086B872B6FEE7F1
:1002400010B590F821100022022905D00421816305
:1002500080F82020012010BD01680B6823F00E03F8
:100260000B6001680B6823F001030B6090F84030CD
:10027000C46B012101FA03F3636080F8211080F858
:100280002020104610BD000010B590F82110002469
:10029000022903D00421816301243DE001680A683A
:1002A00022F00E020A6001680A6822F001020A6068
:1002B0001A4A0168914201D1012121E0174A143202
:1002C000914201D110211BE0144A2832914201D100
:1002D000891515E0114A3C32914201D189140FE091
:1002E0000E4A5032914202D14FF4803108E00B4A5D
:1002F0006432914202D14FF4801101E04FF08071DD
:10030000064A083A5160012180F82110002180F846
:100310002010416B01B18847204610BD0800024003
:1003200070B5044600F012F90546601C02D004487E
:100330000078044400F00AF9401BA042FAD370BDD3
:100340000800002070470000044910B50A68024206
:1003500002D00860FFF7F6FF10BD00001404014052
:100360002DE9F84FDFF8B891002409F1040A0AF1E9
:10037000040B23460F270BF1040EC9E00125A5400D
:100380002A40AA427DD1674ED1F804C0ACEB0608E2
:10039000B44532D014DCBCF1030F3AD009DCBCF117
:1003A000000F2AD0BCF1010F1CD0BCF1020F31D1DB
:1003B0001DE0BCF1110F17D0BCF1120F2AD119E0CA
:1003C000B8F5881F19D006DCB8F5803F15D0B8F510
:1003D000801F1FD111E0B8F5001F0ED0B8F5041F23
:1003E00018D10AE0CB6815E0CB681B1D12E0CB6882
:1003F00008330FE0CB680C330CE08B682BB1012B7A
:100400004FF0080303D0456104E0042302E00561D6
:1004100000E00023FF2A01D8064601E000F10406AF
:100420004FEA840501D9A5F12005D6F8008007FA26
:1004300005FC28EA0C0803FA05F548EA0508C6F8A1
:1004400000804D68ED0062D5374DAE6946F001067B
:10045000AE61AD6924F0030605F001050095334D4A
:1004600006EB050CDCF80850A607360F07FA06F86D
:1004700025EA0805DFF8B880404503D14FF00008B1
:1004800017E044E0DFF8AC80404502D14FF00108AE
:100490000FE0DFF8A480404502D14FF0020808E0E9
:1004A000DFF89880404502D14FF0030801E04FF09B
:1004B000040808FA06F848EA0508CCF808804D68F0
:1004C000D9F80060ED034D4601D5164300E0964390
:1004D0002E604D68DAF80060AD03554601D516432D
:1004E00000E096432E604D68DBF80060ED025D464B
:1004F00001D5164300E096432E604D68DEF800609B
:10050000AD02754601D5164300E096432E60641C8B
:100510000D682A46E5407FF431AFBDE8F88F000052
:1005200000040140000011100010024000000140D2
:1005300000080140000C014000100140001401407F
:100540000AB1016170470904FBE7000001488068B7
:1005500070470000080000200248816802781144BA
:100560008160704708000020074810B5016841F01D
:1005700010010160032000F095F80F2000F006F84C
:1005800000F03EF8002010BD0020024000B50146FA
:1005900087B000221E2000F065F81E2000F054F8FD
:1005A0001348C16941F00401C161C06905A900F0A7
:1005B00004000690684600F01DF900F03BF90D4973
:1005C0004000B0FBF1F10D480B4A491E026041604A
:1005D00040F2E7320021C0E90321816000F0DCFB3A
:1005E00010B1012007B000BD044800F021FCF9E77C
:1005F0000010024040420F0000080040B0020020FE
:100600000F4808B5816941F001018161816901F0FC
:1006100001010091C16941F08051C161C0690022AE
:1006200000F0805000900F21901E00F01BF805484C
:10063000416821F0E06141F00071416008BD0000B7
:100640000010024000000140002809DB00F01F02FA
:10065000012191404009800000F1E020C0F8001124
:1006600070470000F0B40E4B1B680C46C3F3022326
:10067000C3F10705042D00D90425191D072901D24E
:10068000002300E0DB1E012606FA05F1491E214089
:1006900099409E40761E16403143F0BC01F00FBBDE
:1006A0000CED00E0064900F0070208684FF6FF0372
:1006B000184040EA0220034A1043086070470000D7
:1006C0000CED00E00000FA052DE9F0470F460500AB
:1006D00061D0434E306800F00700B84209D230685C
:1006E00020F0070038433060306800F00700B8425F
:1006F00051D128683B4C810712D5400703D560686B
:1007000040F4E06060602878000703D5606840F43A
:10071000605060606068A96820F0F0000843606085
:100720002878C00728D06868012810D021680228DE
:1007300010D0890700292EDA616821F003010143F6
:100740006160FFF703FF804641F288390DE02168C0
:100750008903EFE78901EDE7FFF7F8FEA0EB080159
:10076000494502D90320BDE8F0876068696800F058
:100770000C00B0EB810FEFD1306800F00700B842F9
:100780000BD9306820F0070038433060306800F043
:100790000700B84201D00120E5E72878400705D5D9
:1007A0006068E96820F4E06008436060287800072A
:1007B00006D56068296920F4605040EAC100606095
:1007C00000F058F86168084AC1F30311515CC84051
:1007D0000649086006480068FFF7D8FE0020C2E717
:1007E000002002400010024068350008140000207C
:1007F0000C0000200F2202600C4A536803F0030330
:100800004360536803F0F0038360536803F4E063CC
:10081000C36052684FF4E06303EAD2020261044805
:10082000006800F0070008607047000000100240F8
:10083000002002400448054900684968044AC1F3A1
:100840000221515CC8407047140000200010024093
:10085000783500080448054900684968044AC1F32E
:10086000C221515CC84070471400002000100240B3
:100870007835000813A185B00FC98DE80F0015A0C9
:10088000154A00680490516801F00C00042804D057
:10089000082804D0114805B070471148FBE7C1F3A0
:1008A0008343C9031DF8030009D5516804AAC1F3A5
:1008B0004041515C0A4A5043B0FBF1F0EBE7094973
:1008C0004843E8E702030405060708090A0B0C0D74
:1008D0000E0F1010010200000010024000127A00FA
:1008E0000024F40000093D002DE9F84F040070D009
:1008F0002078C04DC00749D06868C0F38100012846
:1009000007D06868C0F38100022809D16868C00375
:1009100006D52868800339D560680028E7D035E01F
:100920006068B0F5803F0BD010B1B0F5A02F11D0AA
:10093000286820F480302860286820F4802002E0B5
:10094000286840F480302860606890B1FFF7FEFDB1
:1009500006460AE0286840F480202860F0E700BFDF
:10096000FFF7F4FD801B642873D828688003F7D54F
:100970000CE0FFF7EBFD064605E000BFFFF7E6FDE4
:10098000801B6428F0D828688003F7D420789A4E1A
:1009900080074FF001094FF0000839D5686810F062
:1009A0000C0F07D06868C0F38100022809D168687D
:1009B000C00306D42868800714D52069012808D10F
:1009C00010E02069B0B1C6F80090FFF7BFFD074600
:1009D00005E00AE1FFF7BAFDC01B0228C4D8286869
:1009E0008007F7D52868616920F0F80040EAC10067
:1009F00028600DE0C6F80080FFF7A8FD074604E078
:100A0000FFF7A4FDC01B022823D828688007F7D46D
:100A1000207800072CD57948A169D9B1C0F8009099
:100A2000FFF794FD074604E0FFF790FDC01B022886
:100A30000FD8686A8007F7D571484FF4FA510068FB
:100A4000B0FBF1F0009000BF0098411E0091FAD277
:100A50000EE080E0C0F80080FFF778FD074604E074
:100A6000FFF774FDC01B022875D8686A8007F7D4A9
:100A70002078400760D5E8690027C00008D4E869FD
:100A800040F08050E861E869012700F08050009054
:100A90005C480168C90513D40168834641F480713C
:100AA0000160FFF753FD824606E000BFFFF74EFDF1
:100AB000A0EB0A0064284ED8DBF80000C005F5D58D
:100AC000E06801280AD008B1052813D0286A20F070
:100AD00001002862286A20F0040002E0286A40F041
:100AE00001002862E06841F2883B98B1FFF72EFDD3
:100AF00082460BE0286A40F004002862EEE700BF5F
:100B0000FFF724FDA0EB0A0159455AD8286A80074F
:100B1000F6D50CE0FFF71AFD824605E0FFF716FD5B
:100B2000A0EB0A0159454CD8286A8007F6D41FB1BA
:100B3000E86920F08050E861E06988B36968C1F332
:100B40008101022944D00228C6F8608004D0FFF752
:100B5000FDFC044638E034E0FFF7F8FC074604E00B
:100B6000FFF7F4FCC01B02282BD828688001F7D4BB
:100B7000206AB0F5803F05D16868A16820F4003094
:100B800008436860D4E908010843696821F47411D6
:100B900008436860C6F86090FFF7D8FC044606E09A
:100BA00025E000BFFFF7D2FC001B022809D8286807
:100BB0008001F7D51BE000BFFFF7C8FC001B02282F
:100BC00002D90320BDE8F88F28688001F4D40EE034
:100BD0000128F7D06868226A00F48031914204D17C
:100BE000616A00F47010884201D00120EAE7002019
:100BF000E8E7000000100240000042428004424248
:100C0000140000200070004070B5040009D0606A34
:100C1000002540B125616561A56294F8510040B19D
:100C20000CE0012070BD6068B0F5827FF4D0E56112
:100C3000F2E784F85050204600F040F8022084F893
:100C400051002068016821F040010160A0882189DD
:100C500000F4827001F404410843A18901F40061A9
:100C60000843217C01F002010843217D01F00101CC
:100C70000843218B01F400710843217F01F0380102
:100C8000084394F8201001F080010843218D01F4FD
:100C90000051084321680860A069042101EA10405E
:100CA000216848602068C16921F40061C1616565FF
:100CB000012084F85100002070BD000030B585B0DF
:100CC000002400940194029403940068144988421B
:100CD00023D11448816941F480518161816901F413
:100CE00080510491816941F00401816180690E4D58
:100CF00000F004000490A020009002200190032046
:100D0000039069462846FFF72BFB4020CDE90004FD
:100D1000694628460294FFF723FB05B030BD00006A
:100D20000030014000100240000801407047704749
:100D300070B590F83C20012A26D0012480F83C4070
:100D4000022280F83D2003685A689D6822F07006F0
:100D50000A6832435A600D4B02689A4208D0B2F1D9
:100D6000804F05D00A4B9A4202D00A4B9A4204D1D6
:100D7000496825F080031943916080F83D400021C7
:100D800080F83C10084670BD022070BD002C014068
:100D9000000400400008004010B5040003D094F89F
:100DA0003D0010B107E0012010BD002084F83C0098
:100DB000204600F01FF8022084F83D00211D206825
:100DC00000F018FE012084F8460084F83E0084F804
:100DD0003F0084F8400084F8410084F8420084F821
:100DE000430084F8440084F8450084F83D00002066
:100DF00010BD000008B500680B49884212D10B48AD
:100E0000C16941F00201C161C069002200F0020025
:100E1000009005211D20FFF725FCBDE808401D209E
:100E2000FFF712BC08BD00000004004000100240A3
:100E300090F83D10012901D001207047022180F86F
:100E40003D100168CA6842F00102CA6000680B499F
:100E5000884208D0B0F1804F05D00949884202D0BD
:100E60000849884204D1816801F00701062903D0AE
:100E7000016841F00101016000207047002C014031
:100E8000000400400008004070B5044690F83C00A3
:100E9000012817D0012584F83C50022084F83D0039
:100EA0002068826822F0770222F47F42826008681C
:100EB000502830D00DDC20284DD005DC98B3102808
:100EC0003BD148E0022070BD302844D0402834D1C6
:100ED00039E0602828D0702806D0B0F5805F2CD08B
:100EE000B0F5005F29D10AE0CB68D1E90121206883
:100EF00000F0B6FD2068816841F0770109E0CB6819
:100F0000D1E90121206800F0ABFD2068816841F43F
:100F10008041816011E0CA684968206800F0B2FD34
:100F20005021206807E016E0CA684968206800F090
:100F3000BAFD6021206800F09DFD84F83D5000203E
:100F400084F83C0070BDCA684968206800F09AFDCA
:100F500040212068EFE7226801461046EBE7704722
:100F600070B50446006801694FF00005C943890760
:100F700015D4C168C943890711D4E91E0161012054
:100F80002077206880698007204602D0FFF7E7FFBE
:100F900004E000F098F8204600F096F825772068E5
:100FA0000169C943490717D4C168C943490713D424
:100FB0006FF004010161022020772068806910F43D
:100FC000407F204602D0FFF7CAFF04E000F07BF824
:100FD000204600F079F8257720680169C9430907A0
:100FE00016D4C168C943090712D46FF00801016122
:100FF000042020772068C0698007204602D0FFF7D0
:10100000AEFF04E000F05FF8204600F05DF82577C1
:1010100020680169C943C90617D4C168C943C90614
:1010200013D46FF010010161082020772068C06997
:1010300010F4407F204602D0FFF791FF04E000F05B
:1010400042F8204600F040F8257720680169C9433E
:10105000C90708D1C168C943C90704D1891E016104
:10106000204600F033F820680169C943090609D415
:10107000C168C943090605D46FF0800101612046AB
:10108000FFF754FE20680169C943490609D4C168C5
:10109000C943490605D46FF040010161204600F0C4
:1010A0001FF820680169C94389060BD4C168C94388
:1010B000890607D46FF0200101612046BDE8704029
:1010C000FFF735BE70BD70477047000000680349E8
:1010D000884201D1FFF740BA704700000008004085
:1010E0007047704770470000F8B502680446106802
:1010F000D168536910F00F0F4FF0000553D003F083
:10110000010601F4907737435FD0C20705D0CA05C6
:1011100003D5226C42F001022264420705D5DA07AA
:1011200003D0226C42F002022264820705D5DA075E
:1011300003D0226C42F004022264020707D501F0BA
:101140002002324303D0226C42F008022264226C57
:10115000002A34D0800604D5880602D5204600F047
:10116000D4FC20684069216CC0F38010090700D4CA
:1011700030B3204600F0B1FC2068416949061BD518
:10118000416921F040014161A06BA8B15849416318
:10119000A06BFFF779F8002811D0A06B416B01B06C
:1011A000BDE8F040084783060FD58B060DD52046D5
:1011B000BDE8F84000F0A9BC2046FFF793FFF8BD5A
:1011C0002046FFF78FFF2564F8BD266B2023012EF4
:1011D00052D1C60650D5CE064ED510685068009044
:1011E000506940062AD5A16B086840680004000CCD
:1011F000EAD0A68D8642E7D9E0858869202818D0F4
:10120000D06820F48070D0602068416921F001012D
:1012100041612068416921F04001416184F83E301C
:1012200025632068C16821F01001C160A06BFFF741
:1012300007F8A08DE18D401A81B219E0A08DE18DF3
:10124000401A81B2E08D0028BED00029BCD0D06801
:1012500020F49070D0602068426922F0010242615F
:1012600084F83E3025632068C26822F01002C26014
:101270002046FFF736FFF8BD05062BD50D0629D50C
:1012800094F83D002128F6D1A068B0F5805F01D127
:101290002069B0B1206A411C216221680078486051
:1012A000E08C401E0004000CE084E4D12068C1689A
:1012B00021F08001C1602068C16841F04001C16037
:1012C000F8BD206A0088C0F308005060206A801CC6
:1012D0002062E5E74006F3D54806F1D5D1682046FF
:1012E00021F04001D16084F83D3000F0AAF8F8BD4B
:1012F000CB1A000870B5040004D094F83D00002516
:1013000010B106E0012070BD84F83C50204600F08A
:1013100023F8242084F83D002068C16821F400519E
:10132000C160204600F04CFC2068016921F4904126
:1013300001612068416921F02A0141612068C1688A
:1013400041F40051C1602564202084F83D0084F8F8
:101350003E00002070BD000030B585B00024009430
:101360000194029403940068184988422CD11848CB
:10137000C16941F48021C161C16901F480210491F6
:10138000816941F0080181618069124D00F0080017
:1013900004904FF48060009002200190032003909D
:1013A00069462846FEF7DCFFE814CDE900046946EB
:1013B00028460294FEF7D4FF002205212720FFF7DC
:1013C00051F92720FFF740F905B030BD0048004033
:1013D00000100240000C014090F83E30202B0ED14E
:1013E00059B152B190F83C30012B08D0012380F85C
:1013F0003C300023036300F03FBC01207047022013
:101400007047704790F83D30202B18D1A9B1A2B198
:1014100090F83C30012B12D001628284C2840021FA
:101420000164212280F83D2080F83C100068C168EA
:1014300041F08001C1600020704701207047022008
:1014400070477047FEE7000010B58EB01C220B49B4
:101450006846FEF7B5FE0021684601F001F8084C29
:1014600006491C2220601C3107A8FEF7A9FE0021B6
:1014700007A800F0F5FF60600EB010BD3035000821
:10148000000000202DE9F04385B000253348009589
:10149000019502950395816941F02001816181697F
:1014A00001F020010491816941F0040181618169A9
:1014B00001F004010491816941F0080181618069B2
:1014C000274F00F008000490012210213846FFF752
:1014D00037F8DFF89090012243F202014846FFF707
:1014E0002FF8DFF884800124CDE9004869463846AA
:1014F0000295FEF735FF102003268DE8710069463E
:101500003846FEF72DFF0227CDE90074CDE90246EB
:1015100069464846FEF724FF30038DE871006946AE
:101520004846FEF71DFF2020CDE9000869460297D6
:101530004846FEF715FF002205210620FFF792F826
:101540000620FFF781F8002205211720FFF78AF80F
:101550001720FFF779F805B0BDE8F08300100240CE
:1015600000080140000C014000001110104810B5A7
:101570000E4901604FF48271416000218160C160B9
:101580004FF400720161C0E905122022C0E9072171
:10159000416281620A21C162FFF736FB002803D055
:1015A000BDE81040FEF74ABE10BD0000003001400B
:1015B000CC01002010B586B0002417480094019497
:1015C0000294039404941349059401604721C0E9EF
:1015D00001144FF6FF71C0E903148461FFF7DCFBCF
:1015E00008B1FEF72BFE4FF48050009069460A4880
:1015F000FFF74AFC08B1FEF721FE049404A906484F
:101600000594FFF795FB002801D0FEF717FE06B002
:1016100010BD000000040040240200200C4810B55A
:101620000A4901604FF4E1314160002181600C22E0
:10163000C160C0E904128161C161FFF75BFE00284F
:1016400003D0BDE81040FEF7F9BD10BD00480040D2
:101650006C020020FEE7FEE738B5002407A001F089
:10166000F5FA094B094A0A490A48009400F0B2FE0B
:10167000BDE8384008A1074800F0DCBE4E542D53A9
:1016800068656C6C2E0D0A00612C00081129000899
:10169000F5280008F802002053544D333246313EFD
:1016A00000000000014800F066BE0000F8020020C3
:1016B00070B5002404F1B000C0B2002100F037F989
:1016C0000021022000F033F90021102000F02FF952
:1016D00000250121002000F02AF96D1CEDB2802DBB
:1016E000F7D3641CE4B2082CE4D370BD10B50446F3
:1016F00000F02AF8782000F073F800F05FF800207E
:1017000000F06EF800F05AF8204600F069F800F09A
:1017100055F8BDE8104000F033B810B5044600F0AD
:1017200013F8782000F05CF800F048F8402000F052
:1017300057F800F043F8204600F052F800F03EF869
:10174000BDE8104000F01CB870B501220B4D5403E9
:1017500021462846FEF7F4FE0122160331462846AC
:10176000FEF7EEFE002221462846FEF7E9FE31464E
:101770002846BDE870400022FEF7E2BE000C0140A2
:1017800070B50D4D4FF48054002221462846FEF7D7
:10179000D7FE6600002231462846FEF7D1FE012220
:1017A00021462846FEF7CCFE31462846BDE870406B
:1017B0000122FEF7C5BE0000000C014070B50122F9
:1017C000064D140321462846FEF7BAFE2146284658
:1017D000BDE870400022FEF7B3BE0000000C0140DF
:1017E0002DE9F041134F05464FF480560022314653
:1017F0003846FEF7A5FE00244FF40058280601D510
:10180000012200E0002241463846FEF799FE6806B4
:10181000050E012231463846FEF792FE002231467F
:101820003846FEF78DFE641CE4B2082CE6D3BDE812
:10183000F0810000000C014010B50021AE2000F046
:1018400076F80021402000F072F80021B02000F06E
:101850006EF80021C82000F06AF80021812000F015
:1018600066F80021FF2000F062F80021A12000F0BE
:101870005EF80021A62000F05AF80021A82000F010
:1018800056F800211F2000F052F80021D32000F06C
:101890004EF80021084600F04AF80021D52000F05B
:1018A00046F80021F02000F042F80021D92000F095
:1018B0003EF80021222000F03AF80021DA2000F062
:1018C00036F80021022000F032F80021DB2000F081
:1018D0002EF80021492000F02AF800218D2000F088
:1018E00026F80021142000F022F80021AF2000F09B
:1018F0001EF8FFF7DDFE0021BDE810400846AFF3FB
:10190000008010B50446B031C8B2002100F00FF8D5
:10191000102040EA1410002100F009F804F00F0034
:10192000BDE8104040F001000021AFF3008009B194
:10193000FFF7F3BEFFF7DABE642000F085FDFBE79A
:10194000FFF7B0FE012000F07FFDF9E710B5502051
:1019500080F31188BFF34F8FBFF36F8F01F022FD2B
:1019600018B104494FF080500860002080F31188BE
:1019700010BD000004ED00E010B590B028216846CD
:10198000FEF737FC14210AA8FEF733FC01210804F6
:10199000CDE900104200029202240491CDE90740F3
:1019A0004FF4E01009906846FEF79EFF08B172B64A
:1019B000FEE70F20CDE90A0400204FF48061CDE955
:1019C0000C010E9002210AA8FEF77EFE002801D02D
:1019D00072B6FEE710B010BD704700000148FFF777
:1019E000BFBA0000240200200148FFF7B9BA000086
:1019F000B0020020F0B50268164B174C174D4FF09F
:101A00008047984205D0B84203D0A04201D0A842F6
:101A100003D122F070064A683243984205D0B8429A
:101A200003D0A04201D0A84203D122F44074CA6876
:101A300022434C6922F08002224302608A68C2621B
:101A40000A688262984201D10969016301214161FA
:101A5000F0BD0000002C01400004004000080040E0
:101A600010B5846842EA032224F47F440A432243E7
:101A7000826010BD826822F070020A4342F00701C2
:101A80008160704710B5036A046A24F0010404629F
:101A9000846924F0F00444EA021423F00A020A43A1
:101AA0008461026210BD10B5036A23F01003036263
:101AB0008369046A23F4704343EA023224F0A003EA
:101AC00043EA01118261016210BD10B5406A002134
:101AD000C185C184FFF706FB10BD0168CA6822F406
:101AE0009072CA6001684A6922F001024A61016B82
:101AF000012904D10168CA6822F01002CA602021BD
:101B000080F83E1000210163704708B590F83E1040
:101B1000222901D0022008BD82684FF480539A42E6
:101B200001D1016921B1816A9A421BD04AB10AE010
:101B30000268816A5268C2F308020A80816A891CBD
:101B400008E0026972B10268526802F07F020A700E
:101B5000816A491C8162C18D491E0904090CC18535
:101B600003D019E002685268F1E70168CA6822F000
:101B70002002CA600168CA6822F48072CA600168E3
:101B80004A6922F001024A61202180F83E10016B6F
:101B9000012903D0FFF735FC002008BD00210163B7
:101BA0000168CA6822F01002CA6001680A68D20699
:101BB00002D50A6849680091818DFFF792FAEBE738
:101BC00070B5044600680169E26821F44051114390
:101BD00001612169A0680843616908432168CA68F6
:101BE00041F20C639A430243CA6020684169A269CA
:101BF00021F44071114341611E492068884202D19D
:101C0000FEF728FE01E0FEF715FE00EBC00101EB38
:101C10000012606864218000B2FBF0F3B3FBF1F3C3
:101C20006FF018067343B2FBF0F5B2FBF0F605EB6C
:101C30008305322303EB0515B5FBF1F5B6FBF1F691
:101C400005F0F00505EB0615B2FBF0F6B2FBF0F07F
:101C5000B0FBF1F06FF01802504306EB800003EB8D
:101C60000010B0FBF1F0216800F00F0028448860FC
:101C700070BD00000038014081628285C28500216C
:101C80000164222280F83E2080F83C100168CA6876
:101C900042F48072CA6001684A6942F001024A61F6
:101CA0000068C16841F02001C16000207047000059
:101CB0000148FFF719BA00006C020020FEE709078F
:101CC000090E002804DB00F1E02080F800147047C2
:101CD00000F00F0000F1E02080F8141D704702E0D2
:101CE00008C8121F08C1002AFAD1704770470020A7
:101CF00001E001C1121F002AFBD17047F0B5044674
:101D00006C30A1B0064600F011FE00282BD08022D6
:101D10006946304600F080FE0546304600F02EFE53
:101D2000074604F10800ED1B0121064601F03AFACE
:101D3000D4F88C25002D18DDD4F884350DEB070080
:101D4000294604F284549847236801210CA0A26814
:101D5000984700246D1C04E00121304601F022FA6E
:101D6000641CAC42F8DB21B0F0BDD4F8843501210D
:101D700003A098470121304601F014FAF3E7000070
:101D80002000000070B504466C3000F0F0FDD4F87F
:101D9000843502210DA0D4F88C2598470CA000F0C2
:101DA0004CFA0146D4F8843509A0D4F88C2598471C
:101DB00004F5B260054600F040FA01462846D4F822
:101DC0008435D4F88C25BDE8704018475E43000088
:101DD0000D0A000070B504465021083001F0E2F908
:101DE00004F5B260054600F028FA0146D4F88435BF
:101DF0002846D4F88C25984704F16C00BDE8704063
:101E000000F0BFBD10B504466C3000F0C5FD0028E1
:101E100006D004F10800BDE81040012101F0C2B96C
:101E200010BD10B504466C3000F0C1FD002806D08E
:101E300004F10800BDE81040012101F0D1B910BD46
:101E4000F0B50446A1B06C3080226946074600F028
:101E5000E3FD684600F0F1F90546502104F1080061
:101E600001F0A0F904F5B260064600F0E6F901467B
:101E7000D4F88435D4F88C25304604F2845498473D
:101E8000236829466846A2689847384600F09AFDBC
:101E900021B0F0BD70B504466C30A0B0064600F02D
:101EA0009BFD002825D080226946304600F0B4FD15
:101EB0000546304600F062FD2D1AD4F88C2504F159
:101EC0000806002D17DDD4F884356844294604F24D
:101ED00084549847236801210CA0A26898470024E5
:101EE0006D1C04E00121304601F05CF9641CAC4239
:101EF000F8DB20B070BDD4F88435012103A09847E9
:101F00000121304601F04EF9F3E700002000000007
:101F100030B50446A1B06C3080226946054600F019
:101F20007BFD284600F023FD694604F1F40000F033
:101F300051FE10A000F081F90146D4F884350DA0BF
:101F4000D4F88C259847D4F888256846D4F88C15A1
:101F50009047606000280BD104F5B260054600F0A0
:101F60006CF90146D4F884352846D4F88C25984776
:101F700021B030BD0D0A000070B50446F430A0B0A9
:101F8000054600F000FE002827D08022694628463A
:101F900000F0E5FD051E20DD04F10800064601F015
:101FA0003DF95021304601F0FDF804F5B2600646D7
:101FB00000F043F90146D4F884353046D4F88C2536
:101FC0009847D4F8843529466846D4F88C25984734
:101FD000694604F16C0000F05FFD20B070BD70B583
:101FE0000446F430A0B0054600F0E0FD002827D0FC
:101FF00080226946284600F0B2FD051E20DD04F16E
:102000000800064601F00AF95021304601F0CAF8EE
:1020100004F5B260064600F010F90146D4F88435A4
:102020003046D4F88C259847D4F88435294668463C
:10203000D4F88C259847694604F16C0000F02CFD1B
:1020400020B070BD2DE9F04FD0F8FC148026A1B06F
:10205000044600F1F4084FF0FF3700F16C0B00F577
:10206000A06500F5B26A00F10809002936DA80227D
:102070002946584600F0D0FC00280BDD0021C4F8AA
:10208000FC1401AB2A464046009600F01CFD20B12E
:10209000C4F8FC7421B0BDE8F08F01A800F0CDF8C1
:1020A0000546484601F0BAF85021484601F07AF852
:1020B000504600F0C2F80146D4F88435D4F88C2597
:1020C000504604F2845498472368294601A8A26820
:1020D000984701A9584600F0DFFCDBE7491CC4F82B
:1020E000FC1401AB2A464046009600F0ECFC0028A8
:1020F000D3D0284600F0A1F80646484601F08EF8F5
:102100005021484601F04EF8504600F096F801463E
:10211000D4F88435D4F88C25504604F5A264984749
:10212000636F31462846E26F98472946584600F0CB
:10213000B3FC44F8147CADE730B4002301240F292C
:1021400036D2DFE801F035310B080808081108081D
:10215000081808080800436830BC1847C1680B46D7
:10216000491C022902DD047430BC704700F10804E8
:10217000C1601A55F8E7416D3B2A01D031B107E043
:10218000491C416500EB81000361EDE74465436153
:10219000416D491E00EB8101303A486900EB800037
:1021A00002EB40004861DFE7C36043650374DBE78F
:1021B00000220F214368CFE7FEF7D6F9FFF7DCFBDB
:1021C000FFF760F9FFF7D2F9FFF7F4F9FFF726FA06
:1021D0004FF4FA70FEF7A4F8FFF72EFBFFF73CFA76
:1021E000FFF732F900F037F9FEE7014600208429B5
:1021F00000D0C81C70470DE00B789A4208D010063A
:10220000B0EB036F02D24FF0FF30704701207047F0
:10221000401C491C0278002AEED10B78002BEBD130
:1022200000207047024602E002F8013B491C0B788F
:10223000002BF9D1002111707047002101E0401CF2
:10224000491C0278002AFAD10846704730B50023AD
:1022500010E09A4214DD0D78AC4208D02006B0EBB5
:10226000056F02D24FF0FF3030BD012030BD401C61
:10227000491C5B1C0478002CEBD10D78002DE8D1B3
:10228000002030BDF0B50024059F2646A4463C60E2
:1022900028E00D2D24D00A2D22D0092D20D0FDB10B
:1022A000202D1DD0761C012E1BD18C4216D1144638
:1022B0000021491C8B420CDD04F8015B10F8015F22
:1022C0000D2D06D00A2D04D0092D02D00DB1202DE0
:1022D000EFD184F800C010463960F0BD641C00E006
:1022E0000026401C0578002DD3D10020F0BD2DE93B
:1022F000F74F0024E6B08B46824622460FE00D29B8
:102300000BD00A2909D0092907D031B1202904D0DE
:10231000521C012A02D1641C00E00022401C0178FA
:102320000029ECD1402C00DB4024002546AF2E468E
:102330000DF104080DF5887913E0C5F180033A46E4
:1023400031465046CDF80090FFF79CFF48F8260034
:1023500044980544691C802905DA07446D1C761CE5
:102360007F1CA642E9DB01A920465B46689A984794
:1023700069B0BDE8F08F38B504464068002824D124
:102380002068A0F5864167391FD104F5B260054683
:10239000FFF753FF0146D4F884352846D4F88C253E
:1023A000984704F110050DE0D4F880350121684606
:1023B000D4F88C259847002808DD01226946284674
:1023C00000F090FE60680028EED038BD012060600B
:1023D00038BD000070B5044600F5B060049E4EC0E4
:1023E000A0F5B260154611A100F5B260FFF71AFF23
:1023F000A4663246294604F1080000F023FF0C4988
:1024000004F1100000F0C6FE04F16C0000F015FBB2
:1024100004F1F40000F096FB4FF0FF30C4F8FC0428
:1024200044F2673020600020606070BD3E00000014
:10243000413000080268A2F58643673B03D100F5EE
:10244000B260FFF7EFBE704710B500B9012000F091
:1024500065FD002010BD10B500F086FD002010BD08
:102460007FB50D4604464169B0F9080081B1A16904
:1024700071B1FFF7BAFED4E905128DE80700D4E97F
:1024800000102B46226900F062FF039004B070BD7B
:10249000FFF7ABFE03A9CDE90001208A2B4682B2EB
:1024A000D4E9001000F026FF012801D00020EDE75C
:1024B0000398EBE72DE9F041184C0F460546666995
:1024C0002068001D00F066FC38B9206890F82C10D8
:1024D00001208840A1698143A161681C07D137B1FF
:1024E0002168BDE8F0410E48091D00F097BC206846
:1024F0003544B5424560216805D2A068BDE8F04189
:10250000091D00F073BC6068091D00F06FFC206BB2
:10251000854200D22563BDE8F0810000180000204C
:10252000840900202DE9F041054600F083FC2E4C83
:102530002069401C206120682C4F10B1E06940B335
:102540002DE025602069012829D1002606EB8600B0
:1025500007EB800000F03CFC761C072EF6D32348E6
:102560008C3000F035FC2148A03000F031FC1F48D1
:10257000B43000F02DFC1D48C83000F029FC1B4889
:10258000DC3000F025FC19488C3060601430A0600D
:1025900005E02068E96AC06A884200D82560E06AE0
:1025A000401CE062E96A0120A26988401043A061F2
:1025B00001EB810007EB8000291D00F02FFC00F0EB
:1025C00059FCE06900280CD02068E96AC06A88429A
:1025D00007D207494FF080500860BFF34F8FBFF319
:1025E0006F8FBDE8F081000018000020A8080020CF
:1025F00004ED00E010B5044690F8510058B10128F0
:102600000CD002280FD0502080F31188BFF34F8FD9
:10261000BFF36F8FFEE7206B00F040FC2046BDE863
:10262000104000F03BBC10BD10484FF44061420721
:1026300006D0C01D0D4920F00700411AC1F54061C8
:102640000B4A00230144C2E900030839103A21F083
:10265000070111604B600B600B1AC0E90013936017
:102660004FF000405360D060704700009809002090
:1026700064000020144E154CA6F1C8074FF0805896
:10268000DFF84C9012E000BF00F0D4FBF068C568A2
:10269000281D00F07FFB2069401E2061E068401E7D
:1026A000E06000F0E7FB2846FFF7A4FFE0680028A1
:1026B000EAD138680128F9D9C9F80080BFF34F8FF3
:1026C000BFF36F8FF2E700007009002018000020B0
:1026D00004ED00E02DE9F0479A46DDE909848146E2
:1026E0006FF00303206B03EB82021044089D20F07F
:1026F0000706700707D0502080F31188BFF34F8F73
:10270000BFF36F8FFEE723180A5C83F834200A5C5E
:1027100012B1401C1028F6D3002784F84370072D0F
:1027200000D30625E562C4E91157201D00F05BFBCC
:1027300004F1180000F057FB2461C5F10700646242
:10274000A061E76484F8507052464946304600F074
:10275000BFF82060B8F1000F01D0C8F80040BDE814
:10276000F087000030B5114900E011460A68824246
:10277000FBD34B685C18844203D14068184448601E
:10278000084643681C18944209D1084C103C246840
:10279000A24209D052681A4442600A681268026074
:1027A000814200D0086030BD0460F9E76400002079
:1027B00006484168096829B14168C968C96849681B
:1027C000016370474FF0FF31FAE700001800002066
:1027D00008484068401C4FF0500080F3118804D036
:1027E000BFF34F8FBFF36F8FFEE7BFF34F8FBFF382
:1027F0006F8FFEE76C0000202DE9F04105460027B1
:1028000000F0E8FB314E306808B9FFF70DFFF068C3
:1028100005424BD1C5B3083568070ED005F0070057
:10282000C0F108000544680707D0502080F31188E4
:10283000BFF34F8FBFF36F8FFEE72DB370688542F4
:1028400034D82248103001460C6801E020460C467E
:102850006168A94202D221680029F7D131688C420F
:1028600024D007682168016060680837411B10297F
:102870000FD96019420708D0502080F31188BFF3A8
:102880004F8FBFF36F8FFEE710E041606560FFF789
:1028900069FF61687068401A7060B268904200D247
:1028A000B060F06801430020C4E9000100F0DEFDE3
:1028B000780707D0502080F31188BFF34F8FBFF304
:1028C0006F8FFEE73846BDE8F0810000540000201D
:1028D00010B5031F4FF080741C601B1F21F0010115
:1028E0001960191F024B0B60143940380A6010BD83
:1028F000D127000870B50D460646002404E000BF4D
:1029000000F088F93055641CAC42F9DB284670BDF4
:1029100070B50D460646002403E0305D00F08AF9EC
:10292000641CAC42F9DB284670BD000030B5D0F81D
:102930008010002919DDD0F88440421E651A0B185A
:102940000A44491E641EC0E92014002105E000BFAE
:1029500013F8014B02F8014B491CA942F8DBD0F8EF
:10296000842000218154012030BD002030BD002191
:10297000C0F88010C0F8841001707047D0F8800053
:102980007047D0F88010002904DD0021C0F88010C5
:102990000120704700207047D0F88010002904DD26
:1029A000491EC0F880100120704700207047D0E910
:1029B0002012914204DA491CC0F8801001207047AF
:1029C00000207047D0E920218A4203DAC0F8801045
:1029D000012070470020704730B5D0E9201399429C
:1029E00017DA5C1A421C5B1EC0F884300A440023CC
:1029F0000144641E05E000BF12F8015B01F8015BB1
:102A00005B1CA342F8DBD0F8842000218154012014
:102A100030BD002030BD000010B5002306E000BF2F
:102A2000401C5B1C01F8014B9A4202DD0478002C2B
:102A3000F6D100200870184610BD0021C0F88010A3
:102A4000C0F884100170704770B5D0F884207F2AD8
:102A500020DAD0F88030441CD51A13181444002210
:102A60006D1C04E013F8016904F80169521CAA42C4
:102A7000F8DBD0F880208154D0F880100022491C67
:102A8000C0F88010D0F88410491CC0F8841042545B
:102A9000012070BD002070BD10B503460246002025
:102AA00007E000BF02F8014B0446401C491C802C83
:102AB00002DA0C78002CF5D100211170C3F88400E3
:102AC000C3F8800010BD2DE9FF5F0646DDF838A091
:102AD0000298FFF7B2FB4FF00008054644464FF05E
:102AE000FF3BD6F800042044C11700EB517121F0E0
:102AF0000701401A06EBC0108146FFF79EFBA84273
:102B000000DB28460746024648460299FFF79EFB2F
:102B100098B9002F11DD019988450CD14846FFF77F
:102B20008CFB50450CDA49460398FFF77BFB0020ED
:102B300004B0BDE8F09F08F10108641C082CD0DB4C
:102B40005846F5E70022C0F8002411464FF4806390
:102B5000C0F804244254491C9942FBDB704710B56D
:102B6000D0F8003400EBC3130020521E05E0401CD7
:102B70005B1C01F8014B824202DD1C78002CF6D16F
:102B800000220A7010BDD0F80014491CCA1701EBCE
:102B9000527222F00702891AD0F804248A4203D024
:102BA000C0F800140120704700207047D0F80014CE
:102BB00061B1491ED0F804248A4209D000EBC11249
:102BC00012782AB1C0F80014012070470721F1E7FC
:102BD00000207047D0F804240B7800EBC212B3B188
:102BE00002F8013B11F8013F002BF9D100211170CF
:102BF000D0F80414491CCA1701EB527222F00702E4
:102C0000891AC0F80414C0F800140120704700208D
:102C10007047000008B500208DF8000001226946C9
:102C20000348FEF7D9FB0028F8D19DF8000008BD45
:102C30006C02002001B5012269460348FEF7E2FB61
:102C40000028F8D108BD00006C02002010B5044631
:102C500002E0641CFFF7EEFF20780028F9D110BDD8
:102C600010B500F003F8002010BD0000002201495B
:102C7000FFF73DBB3D2D000870B50A4C00252068CC
:102C8000FFF7E4FF08A0FFF7E1FF6068FFF7DEFF52
:102C900006A0FFF7DBFF0C346D1C022DEFD30020E4
:102CA00070BD00007C3E0008093A00000D0A0000DB
:102CB00070B50C46022806D010A0FFF7C7FF12A07F
:102CC000FFF7C4FF17E013A16068FFF794FA124DF5
:102CD00050B112A16068FFF78EFA38B110A0FFF76B
:102CE000B5FF4FF0FF3070BD012200E0002202214D
:102CF0002846FDF725FC002070BD00006C656420AF
:102D00006F6E0D0A000000006C6564206F66660D32
:102D10000A0000006F6E0000000C01406F66660044
:102D2000556E6B6E6F776E2073756220636F6D6D7D
:102D3000616E6420666F756E640D0A002DE9F041C6
:102D40000E4607000DD00B4C002530682168FFF7B8
:102D500052FA48B10C346D1C022DF6D306A0FFF7D1
:102D600075FF0020BDE8F08131463846A268BDE815
:102D7000F04110477C3E0008556E6B6E6F776E20F9
:102D8000636F6D6D616E6420666F756E642E0D0AE3
:102D900000000000D0E9013201699A60D0E9012306
:102DA0005A604A68824201D182684A600022026108
:102DB0000868401E0860086870470000034B036005
:102DC00003F1540008604020106070477800002034
:102DD00000F108014FF0FF32C0E90112C16001614A
:102DE00000210160704700210161704730B50B6818
:102DF0005A1C02D000F1080202E0026904E02246F7
:102E0000546825689D42FAD953684B6099608A607E
:102E1000516008610168491C016030BD42684A6028
:102E200093688B6093685960916008610168491CE0
:102E300001607047502080F31188BFF34F8FBFF3BC
:102E40006F8F0A494868401C486001280CD1084827
:102E5000006810F0FF0F07D0502080F31188BFF3F7
:102E60004F8FBFF36F8FFEE7704700006C000020AC
:102E700004ED00E00849486828B1401E486001D1CF
:102E800080F311887047502080F31188BFF34F8F73
:102E9000BFF36F8FFEE700006C00002070B50028C4
:102EA00027D0144DA0F108046168E868014207D1F9
:102EB000502080F31188BFF34F8FBFF36F8FFEE771
:102EC00022683AB1502080F31188BFF34F8FBFF3CF
:102ED0006F8FFEE78143616000F07CF8606869688D
:102EE000084468602046FFF73DFCBDE8704000F0F4
:102EF000BDBA70BD540000204FF0E02000210161F8
:102F0000816105494FF47A720968B1FBF2F1491EFB
:102F100041610721016170471400002010B50200D3
:102F200014D00F48806B38B1502080F31188BFF364
:102F30004F8FBFF36F8FFEE700F04CF80021104673
:102F4000FFF7B8FA00F092FA002807D105494FF0D0
:102F500080500860BFF34F8FBFF36F8F10BD00002C
:102F60001800002004ED00E010B586B000240394A2
:102F700005AA04A903A80494FFF720FFDDE90301D3
:102F80000094CDE9011000230EA11048059A00F02D
:102F9000DEF90F490028486311D0502080F31188D2
:102FA000BFF34F8FBFF36F8F4FF0FF3008630120E7
:102FB000C8614C6106B0BDE8104000F047B906B0EA
:102FC00010BD000049444C45000000007526000873
:102FD000180000200248816B491C81637047000083
:102FE000180000201448816B11B101214162704723
:102FF000002141628169B1FA81F1C1F11F0101EB48
:1030000081020E4951F822306BB101EB820101F1CE
:1030100008034A6852684A609A4201D152684A607D
:10302000D16801607047502080F31188BFF34F8F43
:10303000BFF36F8FFEE7000018000020A8080020F3
:1030400070B50C46264BA2B000211D78A54209D1CF
:103050005D78954206D1806D5B6822B02146BDE85F
:1030600070401847491C08331129EEDB0C2C34D171
:10307000846D8DF880204FF0FF30C4F8FC0404F11B
:103080006C0011460646FFF7DFFC002825D08022A1
:1030900069463046FFF7C0FC05463046FFF76EFC38
:1030A0000646AD1BD4F88435012120A8D4F88C2520
:1030B0009847002D11DDD4F8843529460DEB060024
:1030C000D4F88C2598470026083404E001212046D6
:1030D00000F068F8761CAE42F8DB22B070BD00004C
:1030E000803500082DE9F05F17468B46064600251F
:1030F00047E000BF33781BF80500244999460022B9
:103100004FF48574D1F800C09C4509D191F804C0F2
:10311000844505DC91F805C0844501DB897904E02C
:103120000831521CA242EDDD0021824601F00F0061
:103130000C0980461FD01649A9F10100144A095C08
:10314000601E0E3A12F8009019B100223046FEF7C8
:10315000F3FFB8F1000004D0014652463046FEF7B6
:10316000EBFFB9F1000004D0014600223046FEF723
:10317000E3FF347004E0014652463046FEF7DCFFC0
:103180006D1CBD42B6DBBDE8F09F000008360008AC
:103190006E3E00080C2202700022C260426502747A
:1031A000416070471CB51B228DF800205B228DF812
:1031B00001200A2291FBF2F330338DF8023091FBAB
:1031C000F2F302FB131130318DF8031044218DF816
:1031D0000410D0E9003205216846984700201CBD44
:1031E0001CB51B228DF800205B228DF801200A22DD
:1031F00091FBF2F330338DF8023091FBF2F302FBD6
:10320000131130318DF8031043218DF80410D0E9EB
:10321000003205216846984700201CBD08B51B21D7
:103220008DF800105B218DF8011032218DF802100D
:103230004B218DF80310D0E90032042168469847ED
:10324000002008BDC0E90012002070471CB52649C7
:1032500008780190FF20087008788DF800009DF82C
:1032600000009DF8002000F0F000904207D05020B0
:1032700080F31188BFF34F8FBFF36F8FFEE79DF888
:1032800000001A4B00F0500018700720986005E00D
:103290009DF8002052008DF80020401E9DF800206F
:1032A0001206F5D49860032807D0502080F31188C7
:1032B000BFF34F8FBFF36F8FFEE74FF440709860FE
:1032C000019808700A48016841F4700101600168C2
:1032D00041F070410160FFF70FFE00205860FCF7DD
:1032E00023FF00201CBD000000E400E06C00002073
:1032F00020ED00E02DE9FF5F8346DDE90E8799466A
:1033000016468A469000FFF777FA05001CD0542035
:10331000FFF772FA040014D00020256384F85100EE
:10332000CDE90240CDE900874B463246514658462A
:10333000FFF7D0F92046FFF7F5F8012004B0BDE80B
:10334000F09F2846FFF7AAFD4FF0FF30F6E7F0B5F3
:1033500085B0DDE90B640A9DA6B1DCB15427009766
:103360002663022684F85160002604AFCDE90246A8
:10337000CDE90057FFF7AEF92046FFF7D3F80498E0
:1033800005B0F0BD502080F31188BFF34F8FBFF31D
:103390006F8FFEE7502080F31188BFF34F8FBFF38C
:1033A0006F8FFEE72DE9F0412E4C0027A06B40B156
:1033B000206A401C2062606A00B101273846BDE8DF
:1033C000F0816669761C666113D16068006838B167
:1033D000502080F31188BFF34F8FBFF36F8FFEE74C
:1033E0006068A1686160A060A06A401CA062FFF7ED
:1033F000DFF9206BDFF87080864209D360680068CF
:1034000080B16068C068C568686886420DD2206374
:103410002068C06A00EB800158F821000128CAD951
:103420000127C8E74FF0FF30F1E7281DFFF7B2FC96
:10343000A86A18B105F11800FFF7ACFCE86A012191
:10344000A26981401143A16100EB800108EB81007A
:10345000291DFFF7E3FCE86A2168C96A8842CDD3D9
:103460000127CBE718000020A80800202DE9F0472D
:103470002C4D00242746A86B38B1FFF7DBFCA86B66
:10348000401EA863A86B40B146E0502080F311882D
:10349000BFF34F8FBFF36F8FFEE72969224E0120E4
:1034A000D1B3A6F1B40980463068E8B1F068C468C9
:1034B00004F11800FFF76EFC201DFFF76BFCE06ABB
:1034C000AA6908FA00F11143A96100EB800109EB38
:1034D0008100211DFFF7A2FCE06A2968C96A8842C1
:1034E000E2D3C5F82480DFE70CB1FFF761F92C6A5D
:1034F00044B14646FFF756FF00B16E62641EF9D133
:1035000000202862686A38B1084901273807086036
:10351000BFF34F8FBFF36F8FFFF7ACFC3846BDE8AA
:10352000F0870000180000205C09002004ED00E096
:103530009C3E000841190008030000000000000044
:10354000800000000000000000000000943E000821
:1035500039190008FDFF00000000000040000000D5
:10356000000000000000000000000000000000005B
:103570000102030406070809000000000102030419
:1035800005010000D51D000805020000051E000809
:1035900005030000851D000805040000951E0008B5
:1035A00005050000411E000805060000231E000856
:1035B00005080000FD1C0008050900004520000862
:1035C000050D0000111F0008050E0000791F0008FE
:1035D00005100000DF1F000803410000DF1F000886
:1035E00003420000791F000803430000231E000867
:1035F00003440000051E0008037E0000951E00081D
:103600000C7F0000FD1C00080100000000170500F1
:10361000010000001818C50001000000191905007C
:10362000010000001A1AC500010000001B1BA000C9
:10363000010000001C1F050001000000202F3200C7
:103640000100000030394B00010000003A3A200030
:10365000010000003B3B4B00010000003C3F4200EA
:1036600001000000407EC300010000007F7F0700D2
:1036700001000000808FC500010000009090500004
:10368000010000009197C500010000009898E0003B
:1036900001000000999AC500010000009B9B1000EA
:1036A000010000009C9CC000010000009D9DD00016
:1036B000010000009E9FE0000200000000170500CE
:1036C000020000001818C5000200000019190500CA
:1036D000020000001A1AC500020000001B1BA00017
:1036E000020000001C1F050002000000203F070030
:1036F00002000000407EC000020000007F7F070043
:1037000002000000808FC500020000009090500071
:10371000020000009197C500020000009898E000A8
:1037200002000000999AC500020000009B9B100057
:10373000020000009C9CC000020000009D9DD00083
:10374000020000009E9FE00003000000001705003B
:10375000030000001818C500030000001919050037
:10376000030000001A1AC500030000001B1BA00084
:10377000030000001C1F050003000000202F0200B2
:1037800003000000303F200003000000407EC30023
:10379000030000007F7F070003000000808FC5004A
:1037A0000300000090905000030000009197C500B6
:1037B000030000009898E00003000000999AC500FB
:1037C000030000009B9B1000030000009C9CC000B5
:1037D000030000009D9DD000030000009E9FE000BC
:1037E0000400000000170500040000001818C500C0
:1037F0000400000019190500040000001A1AC50091
:10380000040000001B1BA000040000001C1F05009A
:1038100004000000202F32000400000030390B00AB
:10382000040000003A3A2000040000003B3B0B007B
:10383000040000003C3F200004000000407EC30064
:10384000040000007F7F070004000000808FC50097
:103850000400000090905000040000009197C50003
:10386000040000009898E00004000000999AC50048
:10387000040000009B9B1000040000009C9CC00002
:10388000040000009D9DD000040000009E9FE00009
:103890000500000000170700050000001818C5000B
:1038A0000500000019190700050000001A1AC500DC
:1038B000050000001B1BA000050000001C1F0700E6
:1038C00005000000202F72000500000030398B0039
:1038D000050000003A3A6000050000003B3B8B0009
:1038E000050000003C3F820005000000407E900083
:1038F000050000007F7F070005000000808FC500E5
:103900000500000090905000050000009197C50050
:10391000050000009898E00005000000999AC50095
:10392000050000009B9B1000050000009C9CC0004F
:10393000050000009D9DD000050000009E9FE00056
:103940000600000000170700060000001818C50058
:103950000600000019190700060000001A1AC50029
:10396000060000001B1BA000060000001C7F0700D3
:1039700006000000808FC5000600000090905000F7
:10398000060000009197C500060000009898E0002E
:1039900006000000999AC500060000009B9B1000DD
:1039A000060000009C9CC000060000009D9DD00009
:1039B000060000009E9FE0000700000000170700BF
:1039C000070000001818C5000700000019190700BB
:1039D000070000001A1AC500070000001B1BA0000A
:1039E000070000001C1F070007000000202F020036
:1039F00007000000303F600007000000407E90009C
:103A0000070000007F7F070007000000808FC500CF
:103A10000700000090905000070000009197C5003B
:103A2000070000009898E00007000000999AC50080
:103A3000070000009B9B1000070000009C9CC0003A
:103A4000070000009D9DD000070000009E9FE00041
:103A50000800000000170700080000001818C50043
:103A60000800000019190700080000001A1AC50014
:103A7000080000001B1BA000080000001C1F07001E
:103A800008000000202F72000800000030390B00F1
:103A9000080000003A3A6000080000003B3B0B00C1
:103AA000080000003C3F600008000000407E9000DD
:103AB000080000007F7F070008000000808FC5001D
:103AC0000800000090905000080000009197C50089
:103AD000080000009898E00008000000999AC500CE
:103AE000080000009B9B1000080000009C9CC00088
:103AF000080000009D9DD000080000009E9FE0008F
:103B00000900000000170D00090000001818C5008A
:103B10000900000019190D00090000001A1AC5005B
:103B2000090000001B1BA000090000001C7E0D0006
:103B3000090000007F7F070009000000808FC5009A
:103B40000900000090905000090000009197C50006
:103B5000090000009898E00009000000999AC5004B
:103B6000090000009B9B1000090000009C9CC00005
:103B7000090000009D9DD000090000009E9FE0000C
:103B80000A000000001705000A0000001818C50010
:103B90000A000000191905000A0000001A1AC500E1
:103BA0000A0000001B1BA0000A0000001C1F0500EB
:103BB0000A000000202FB2000A000000304FC400AD
:103BC0000A000000505050000A0000005157C40085
:103BD0000A0000005858E0000A000000595AC400CA
:103BE0000A0000005B5B10000A0000005C5CC4007F
:103BF0000A0000005D5DD0000A0000005E5FE0008A
:103C00000A000000607EC4000A0000007F7F0700F9
:103C10000A000000808FC5000A000000909050004C
:103C20000A0000009197C5000A0000009898E00083
:103C30000A000000999AC5000A0000009B9B100032
:103C40000A0000009C9CC0000A0000009D9DD0005E
:103C50000A0000009E9FE0000B0000000017050016
:103C60000B0000001818C5000B0000001919050012
:103C70000B0000001A1AC5000B0000001B1BA0005F
:103C80000B0000001C1F05000B000000202F02008D
:103C90000B000000307EC4000B0000007F7F070097
:103CA0000B000000808FC5000B00000090905000BA
:103CB0000B0000009197C5000B0000009898E000F1
:103CC0000B000000999AC5000B0000009B9B1000A0
:103CD0000B0000009C9CC0000B0000009D9DD000CC
:103CE0000B0000009E9FE0000C0000000017050084
:103CF0000C0000001818C5000C0000001919050080
:103D00000C0000001A1AC5000C0000001B1BA000CC
:103D10000C0000001C1F05000C000000207F0C00A0
:103D20000C000000808FC5000C0000009090500037
:103D30000C0000009197C5000C0000009898E0006E
:103D40000C000000999AC5000C0000009B9B10001D
:103D50000C0000009C9CC0000C0000009D9DD00049
:103D60000C0000009E9FE0000D00000000170700FF
:103D70000D0000001818C5000D00000019190700FB
:103D80000D0000001A1AC5000D0000001B1BA0004A
:103D90000D0000001C1F07000D000000207F09001F
:103DA0000D000000808FC5000D00000090905000B5
:103DB0000D0000009197C5000D0000009898E000EC
:103DC0000D000000999AC5000D0000009B9B10009B
:103DD0000D0000009C9CC0000D0000009D9DD000C7
:103DE0000D0000009E9FE0000E000000001707007D
:103DF0000E0000001818C5000E0000001919070079
:103E00000E0000001A1AC5000E0000001B1BA000C7
:103E10000E0000001C7F07000E000000808FC50010
:103E20000E000000909050000E0000009197C50019
:103E30000E0000009898E0000E000000999AC5005E
:103E40000E0000009B9B10000E0000009C9CC00018
:103E50000E0000009D9DD0000E0000009E9FE0001F
:103E60000100000001000000060100000A0000003F
:103E70000000000000000E0000000800DC3E00080A
:103E8000C43E0008792C0008D83E0008A83E00086F
:103E9000B12C00085461736B4C4544005461736B42
:103EA0005368656C6C000000436F6E74726F6C2019
:103EB000746865207374617465206F66204C454496
:103EC0002E0000004C69737420616C6C20636F6D70
:103ED0006D616E64732E00006C65640068656C70C3
:103EE00000000000043F00080000002078000000EF
:103EF000DE1C00087C3F000878000020201900002C
:103F0000EE1C00080000000000000000010000009E
:103F100010000000000000000024F4000000000079
:103F20000000000000000000000000000000000091
:103F30000000000000000000000000000000000081
:103F40000000000000000000000000000000000071
:103F50000000000000000000000000000000000061
:103F60000000000000000000000000000000000051
:0C3F700000000000AAAAAAAA000000009D
:04000005080000ED02
:00000001FF
